:020000040800F2
:10000000A0E4022001010108B56B0108BB5F0108F3
:10001000B16B0108C50B010801AD0108000000002B
:100020000000000000000000000000003D0001088A
:100030000F0F01080000000099000108957F0108DA
:100040001B0101088B6E01081B0101081B0101083F
:100050001B0101081B0101081B0101081B0101080C
:100060001B0101081B0101081B0101081B010108FC
:100070001B0101081B0101081B0101081B010108EC
:100080001B0101081B0101081B0101081B010108DC
:100090001B0101081B0101081B0101081B010108CC
:1000A0001B0101081B0101081B0101081B010108BC
:1000B0001B010108558101081B0101081B010108F2
:1000C0001B0101081B0101081B0101081B0101089C
:1000D0001B0101080D8B01081D8B01081B01010884
:1000E0001B0101081B0101081B0101081B0101087C
:1000F0001B0101081B0101081B0101081B0101086C
:100100001B0101081B0101081B0101081B0101085B
:100110001B0101081B010108658101081B01010881
:100120001B0101081B0101081B010108E50D010865
:100130001B0101081B0101081B0101081B0101082B
:100140001B0101081B0101081B010108B96B010813
:100150001B010108F50D01081B0101082D8B010889
:100160001B0101081B0101081B0101081B010108FB
:100170001B0101081B0101081B0101080000000010
:100180001B0101081B010108558501081B0101081D
:100190001B0101081B0101081B0101081B010108CB
:1001A000FD5F01081B010108ED0C01081B0101089E
:1001B0001B0101081B0101081B0101081B010108AB
:1001C0001B0101081B01010800F002F80FF027FFD6
:1001D0000AA090E8000C82448344AAF10107DA45A2
:1001E00001D10FF01CFFAFF2090EBAE80F0013F0B7
:1001F000010F18BFFB1A43F00103184780000000ED
:10020000A00000000A444FF0000C10F8013B13F06E
:10021000070408BF10F8014B1D1108BF10F8015B5F
:10022000641E05D010F8016B641E01F8016BF9D152
:1002300013F0080F1EBF10F8014BAD1C0C1B09D1A9
:100240006D1E58BF01F801CBFAD505E014F8016B1B
:1002500001F8016B6D1EF9D59142D6D370470000AD
:100260000023002400250026103A28BF78C1FBD8BF
:10027000520728BF30C148BF0B607047588B020837
:1002800000040020B803000004020008408C0208AB
:0C029000B8070020E8DC02006002000853
:020000040801F1
:100000001FB516F03EFE9DE8030000F0C9FA00F0AF
:100010008FFA1FBD10B5002000F0F8FA10BD00F0F7
:10002000B3FB1146FFF7ECFF13F03CFD00F0D1FBF2
:1000300003B4FFF7EFFF03BC00F08CFA2D4B1968F7
:100040000868B0E8F04F80F30988BFF36F8F4FF076
:10005000000080F311887047000000000848006825
:10006000006880F308884FF0000080F3148862B6BF
:1000700061B6BFF34F8FBFF36F8F00DF00BF00BFCC
:1000800008ED00E0DFF80C00016841F47001016048
:10009000704700BF88ED00E0EFF30980BFF36F8F7A
:1000A000144B1A681EF0100F08BF20ED108A20E9CB
:1000B000F04F106009B44FF0500072B680F3118811
:1000C000BFF34F8FBFF36F8F62B615F01DF84FF07F
:1000D000000080F3118809BC19680868B0E8F04F87
:1000E0001EF0100F08BFB0EC108A80F30988BFF330
:1000F0006F8F7047D8040020EFF305807047000031
:100100000948804709480047FEE7FEE7FEE7FEE7AB
:10011000FEE7FEE7FEE7FEE7FEE7FEE704480549E7
:10012000054A064B70470000F1800108C90100082C
:10013000A0B40220A0E40220A0C40220A0C4022097
:1001400070B5064600F00CFA056806F10B0020F0C9
:100150000704B4429CBF002070BD2B466A68BAB148
:100160001068A04210D304F1080188423CBF5068D7
:10017000586007D35168101941601168091B01606C
:1001800058601460101D70BD13465268002AE7D1F4
:100190002146284600F0F0F90028DED170BD70B588
:1001A0000446051F00F0DCF90068002C14BF446809
:1001B00070BD002C18BFAC423CBF20466468F8D329
:1001C00001680A18AA4218BF456003D12A6805468B
:1001D0001144016028684119A1421CBF6C6070BDC8
:1001E0006168696021680844286070BD53EA020CA8
:1001F00000F069802DE9F04B4FF00006002B1FBF87
:10020000B3FA83F503FA05F424FA05F65E4012BF4B
:100210001643B2FA82F502FA05F4C5F120051EBFB5
:1002200022FA05FC44EA0C04203556EA044C4FEA55
:10023000144418BF641C4FF000084FF000099042AE
:1002400071EB030C39D3002919BFB1FA81F701FA18
:1002500007F6B0FA80F700FA07F6C7F120071EBFCD
:1002600020FA07FC46EA0C062037B6FBF4FCA7EBA5
:100270000507103F07F01F0BCBF120060CFA0BFB14
:100280002CFA06F644BFB3460026202FA4BF5E46D4
:100290004FF0000B5BEA060C08BF4FF0010B19EBA7
:1002A0000B09ABFB027C48EB0608C01B06FB02CC2B
:1002B0000BFB03CC71EB0C01C1E70B460246414638
:1002C0004846BDE8F08B13B54FF000004FF0000139
:1002D000AFF30080BDE81C40704710B5002000F06F
:1002E000B6F9FFF797FEBDE81040012000F032B9E3
:1002F0002DE9F041074615460E461020FFF720FF76
:1003000004000AD06760C4E9026500F02DF90168B5
:10031000216004600020BDE8F0810120FBE70000BF
:100320000EB5054614460E4613A000F09EF9284669
:1003300000F09BF916A000F098F9304600F095F90E
:1003400015A000F092F900218DF80B100A210DF193
:100350000A008DF80A1008E094FBF1F201FB12424A
:1003600094FBF1F4303200F8012D002CF4DC00F0A5
:100370007CF9FFF7B2FF00002A2A2A206173736517
:100380007274696F6E206661696C65643A20000062
:100390002C2066696C6520002C206C696E6520003D
:1003A00010B5431C02E010F8011B71B18107FAD1AE
:1003B0004FF0013202C88C1A8C4314EAC211F9D0F2
:1003C000C01A0A0603D0C01E10BDC01A10BD0A0410
:1003D00001D0801E10BD0902FCD0401E10BD032AB2
:1003E00040F2308010F0030C00F0158011F8013B52
:1003F000BCF1020F624498BF11F801CB00F8013B39
:1004000038BF11F8013BA2F1040298BF00F801CBFC
:1004100038BF00F8013B11F0030300F02580083AD3
:10042000C0F0088051F8043B083A51F804CBA0E82A
:100430000810F5E7121D5CBF51F8043B40F8043B7F
:10044000AFF30080D20724BF11F8013B11F801CBB4
:1004500048BF11F8012B24BF00F8013B00F801CB85
:1004600048BF00F8012B704710B5203AC0F00B8050
:10047000B1E81850203AA0E81850B1E81850A0E8A8
:100480001850BFF4F5AF5FEA027C24BFB1E8185002
:10049000A0E8185044BF18C918C0BDE810405FEA72
:1004A000827C24BF51F8043B40F8043B08BF7047EE
:1004B000D20728BF31F8023B48BF11F8012B28BFF3
:1004C00020F8023B48BF00F8012B704702F0FF0301
:1004D00043EA032242EA024200F0D3B84FF000029E
:1004E00000B5134694469646203922BFA0E80C502A
:1004F000A0E80C50B1F12001BFF4F7AF090728BF05
:10050000A0E80C5048BF0CC05DF804EB890028BF80
:1005100040F8042B08BF704748BF20F8022B11F0A9
:10052000804F18BF00F8012B704770477047704725
:1005300070B5064C7C44064D7D4403E020682044A1
:100540008047241DAC42F9D170BD00001086010027
:100550001C86010001491820ABBEFEE72600020000
:10056000004870472CB10220004870475CB102205F
:10057000704770477047704738B504460A460020F8
:100580006946AFF30080002808BF38BD02460099D5
:10059000204600F0A2F8012038BD012000F0D4B8B8
:1005A000F8B5AFF30080054600200C46102000BFD0
:1005B0000646A819A0420DD9324669460020AFF37D
:1005C0000080070008BF00F0BFF80098A04218BFE5
:1005D0000546C419FFF7C4FF05600746F01D20F06B
:1005E00007004619284600F00AF8B44208BFF8BDD3
:1005F000A21B31463868BDE8F84000F06EB8002113
:100600000160C0E901107047102070472DE9F041EA
:100610000646FFF7A9FF8046454613E016B1E0689D
:10062000B0420ED120682860D4E90101D8F80070EA
:1006300088472046FFF7B3FDD8F80000B842EBD159
:1006400000E025462C68002CE8D1BDE8F08110B50B
:1006500000F062F8BDE8104000F059B810B500F0A5
:100660007BF8BDE8104000F052B810B5044602E037
:10067000641C00F026F820780028F9D110BD4FF056
:1006800000020429C0F0128010F0030C3FF428AFE0
:10069000CCF1040CBCF1020F18BF00F8012BA8BF6D
:1006A00020F8022BA1EB0C01FFF71ABF5FEAC17C17
:1006B00024BF00F8012B00F8012B48BF00F8012BE4
:1006C000704708B569468DF800000320ABBE08BD31
:1006D0000048704724B102207047034640688C46AA
:1006E000002818BF88423CBF03464068F8D318680A
:1006F0001844884207D00CF1030020F00700001DC9
:10070000411A521A0146081D0A60FFF748BD002829
:1007100001D0FFF71FBF704710B5002102A000F005
:1007200061F8012010BD0000534947414252543A3C
:100730002041626E6F726D616C207465726D696EBE
:100740006174696F6E00000010B500F065F8BDE8D7
:100750001040FFF7DCBF000010B5002102A000F040
:1007600041F8012010BD00005349475056464E3A0B
:100770002050757265207669727475616C20666EA2
:100780002063616C6C6564007546FFF7A1FFAE469F
:1007900005006946534620F00700854618B020B58D
:1007A000FFF7BCFCBDE820404FF000064FF000070B
:1007B0004FF000084FF0000B21F00701AC46ACE809
:1007C000C009ACE8C009ACE8C009ACE8C0098D4676
:1007D000704710B50446AFF300802046BDE81040D6
:1007E000FFF726BC70B505460C460A2000E06D1CDC
:1007F000FFF767FF35B128780028F8D102E0641CC4
:10080000FFF75FFF14B120780028F8D1BDE87040F1
:100810000A20FFF756BF000010B5012805D00021BF
:1008200003A0FFF7DFFF012010BD09A1F8E70000DA
:1008300053494752544D454D3A204F7574206F66C9
:100840002068656170206D656D6F72790000000031
:100850003A2048656170206D656D6F727920636F15
:1008600072727570746564005849096821F44031EA
:10087000574AC2F804131146D1F8041342681143D1
:10088000524A11600168496821F480710268516020
:1008900001684A68016942EA012102685160016801
:1008A000496821F0407102685160016849688268B6
:1008B0001143026851600168896821F4006102688F
:1008C000916001688968C268114302689160414A79
:1008D000816A914218D00168896821F070610268CC
:1008E000916001688968826A1143026891600168B9
:1008F000896821F040510268916001688968C26A84
:100900001143026891600BE00168896821F0706111
:10091000026891600168896821F040510268916025
:100920000168896821F002010268916001688A68A3
:10093000816942EA4101026891602021095CA1B10C
:100940000168496841F400610268516001684968C2
:1009500021F460410268516001684A68416A491E99
:1009600042EA41310268516005E00168496821F4BA
:100970000061026851600168C96A21F4700102686F
:10098000D1620168CA6A818B491E42EA015102683C
:10099000D1620168896821F4007102689160016880
:1009A0008A6890F8301042EA41210268916001683B
:1009B000896821F480610268916001688A684169F0
:1009C00042EA8121026891607047000004230140DF
:1009D000002001400100000F10B50021014805F082
:1009E000B3F810BD180E002010B5012421020348F1
:1009F00001F09EFD00B10024204610BD000402401D
:100A000010B504462146024804F0A7FA10BD0000C4
:100A1000140C002010B5044804F0B2FA042801D0E8
:100A2000012010BD0020FCE7140C002010B50024AC
:100A300000F040F8012801D0022010BD064804F063
:100A4000B3FA044634B94FF40061034804F024F9C2
:100A500000B101242046F0E7140C002070B50025F9
:100A60001426002413E000F081F8054605B910E0D3
:100A7000022D01D1022070BD00F060F80B48006823
:100A8000401C0A490860502001F098FA641C142C9C
:100A9000E9DB00BF06480068844201D904480460CD
:100AA000142C01DB0120E6E70020E4E71C04002011
:100AB0001804002008B501200090FFF795FF08B941
:100AC000002000909DF8000008BD00002DE9F041D5
:100AD00004460D461646002733462A46214604485A
:100AE00004F0A0FB00B101273846BDE8F08100000A
:100AF000140C002010B5002201210248006813F0F8
:100B00000DF910BD240400202DE9F04104460D46E6
:100B10001646002733462A462146044804F01CFCAA
:100B200000B101273846BDE8F0810000140C002018
:100B30000149096848637047180E002010B5042069
:100B400001F03CFA01225103064801F002FD06487B
:100B500004F0F6F8042001F031FA11F0B3F90020A6
:100B600010BD000000080240140C002010B5002247
:100B70004FF40051104801F0ECFC042001F01EFA83
:100B80000E48FFF70DFC40B90C490D4800F0C1F9C3
:100B9000FFF790FF70B9022010BDFFF78BFF08B977
:100BA0000220F9E7FFF742FF08B10120F4E7002037
:100BB00007F07AF90020EFE700080240290400203E
:100BC000146D020800BFFEE70346042B15D007DCB6
:100BD0007BB1012B0ED0022B0DD0032B12D10BE0D9
:100BE000202B0BD0212B0AD0222B09D0232B09D16B
:100BF00007E008E007E006E005E004E003E002E0CB
:100C000001E000E000BF00BF0020704700207047F7
:100C100010B500220449054808F0D8F804490348F3
:100C200008F0CDF8002010BDE44A0020143E00205A
:100C3000E442002070B504460D462146034808F002
:100C4000BEF8024808F096F8002070BD143E00205F
:100C500010B503460C460021084610BD1D4A30B5AC
:100C6000136823F0010313601B4A1368C3F30B14CA
:100C70000123A4F54065243D06D01268C2F30B128F
:100C8000A2F54064273C10D1144A12686AB9144A8C
:100C900014684FF08A45B5EB045F11D01268C2F3B7
:100CA0000B02A2F58064833C0AD00E4A93609368DD
:100CB000002BFCD110601068884209D0002030BDA4
:100CC000094A13601368002BFCD1074A083AF1E780
:100CD000012030BD002000E000ED00E0002004E035
:100CE0000010005C00300240084C025810B5024869
:100CF00000F0E8FD10BD0000240800202DE9F047B9
:100D00000C4617469C46DDF82080D0F80090D9F8B4
:100D1000449009F0404948EA0C4A49EA0A09D0F8E7
:100D200000A0CAF84490D0F80090C9F83C70D0F800
:100D30000490B9F5403F4ED104F07F4604F47F01A2
:100D400004F47F42E3B2D0F80890B9F1000F06D165
:100D500042EA010949EA060949EA030536E0D0F802
:100D60000890B9F1010F04D142EA010949EA0305EB
:100D70002CE0D0F80890B9F1020F09D1C90C920A01
:100D8000DB084FEA421949EAC12949EA03051DE097
:100D9000D0F80890B9F1030F0CD1F60FC90CD20AA4
:100DA000DB084FEA421949EA812949EAC63949EA8A
:100DB00003050BE0360F090D120B1B094FEA021950
:100DC00049EA012949EA063949EA0305D0F80090C1
:100DD000C9F8385003E0D0F80090C9F80C40BDE8DD
:100DE000F087000010B5024800F002FF10BD0000BF
:100DF000980C002010B5024800F0FAFE10BD00006B
:100E0000F80C00200146087810381823B0FBF3F2E4
:100E10000848805CC865032A05D908686FF3090093
:100E2000001D886503E008686FF309008865886D18
:100E300070470000386D0208014600208A6A8B69FD
:100E4000CBB932B1012A0DD0022A03D0032A10D126
:100E50000EE000BFCB6A03F08073B3F1807F00D156
:100E6000012007E0CB6AB3F1C07F00D1012001E08F
:100E700000E000BF34E08B69B3F5005F1AD132B1F6
:100E8000012A07D0022A03D0032A11D10AE000BFA9
:100E900001200EE0CB6A03F08073B3F1807F00D1B4
:100EA000012006E0CB6AB3F1C07F00D1012000E051
:100EB00000BF15E032B1012A05D0022A04D0032A6E
:100EC0000CD103E000BF00BF012008E0CB6A03F0B3
:100ED0008073B3F1807F00D1012000E000BF00BF2C
:100EE000704730B50468246824F4802405682C60B9
:100EF000046863608468402C04D10468A2600468BC
:100F0000E16003E00468A1600468E26030BD7047FE
:100F1000704730B504460D4600222946204600F0B1
:100F200001F830BDF0B50346012500241148407A90
:100F300001281CDA00200F4E767A0E4FB85538463D
:100F4000467A001D40F82630001F467A0830825548
:100F50003E46707A461C7E72044604F130000870EA
:100F60003A2048702F2088700020C870002528463D
:100F7000F0BD00002457002010B504460021204693
:100F800000F002F810BD000030B502460B4600210B
:100F900001200D4C647A012C14DB1478303CE1B252
:100FA000094C241D54F8214064B10025064C241D31
:100FB00044F82150241D6554083C647A641E024D97
:100FC0006C72002030BD0000245700201D480068CE
:100FD00000F0020028B11C48806940F020001A4946
:100FE00088611848006800F0100028B11648806930
:100FF00040F01000144988611248006800F0200099
:1010000028B11148806940F008000F4988610D48F7
:10101000006800F0400028B10B48806940F00400EF
:10102000094988610748006800F0800028B1064837
:10103000806940F0020004498861F220014908609B
:10104000704700000C3C0240E856002070B5044692
:10105000002500201449886101F082FA054609E064
:10106000601C38B124B101F07BFA401BA04201D9C9
:10107000032070BD0D48006800F480300028EFD1D7
:101080000A48006800F0F20018B1FFF79FFF012046
:10109000EFE70648006800F0010010B101200349A5
:1010A00008600020E5E70000E85600200C3C024004
:1010B00030B50246002300240868012816D01368C2
:1010C0006FF30E03D1E901052843CD6828430D696C
:1010D00028434D6928438D692843CD6928430D6A0B
:1010E00028434D6A28430343136019E0136823F42F
:1010F000F843D1E9070528434D6A28430343546860
:101100006FF30E04D1E901052843CD6828430D692A
:1011100028434D6928438D69284304431360546074
:10112000002030BD0246506940EA41005061002075
:10113000704718B5034600200090D1E90004204311
:101140008C68641E40EA4410CC6840EA4420009059
:1011500000981861002018BD70B50346154600229E
:101160000024012D1FD09A6802F070420868401ECA
:101170004E68761E40EA06168868401E46EA00263B
:10118000C868401E46EA0036088A401E46EA004605
:10119000888A401E46EA0056087E401E46EA0060E5
:1011A00002439A6022E09A6811480240C868401ED3
:1011B0000603888A401E46EA00500243DC6804F0B9
:1011C00070440868401E4E68761E40EA061688681D
:1011D000401E46EA0026088A401E46EA0046087E6F
:1011E000401E46EA006004439A60DC60002070BD47
:1011F000FF0F0FFF70B50A480468001D0568001D49
:101200000668344454B108220649204604F0D7FE4B
:10121000042204491031284604F0D1FE70BD0000BC
:1012200020F4F01F9204002018B502460020009020
:1012300000BF92F83C00012801D1022018BD012016
:1012400082F83C0000BF0868092822D91068C068ED
:101250000B780A3B03EB43040723A340984313682E
:10126000D860594B0868984207D11068C0680B7A5B
:1012700040EA03601368D8601FE00B780A3B03EB79
:101280004303886898401368DB6818431368D86084
:1012900013E0106800690B7803EB43040723A340B5
:1012A0009843136818610B7803EB430388689840F0
:1012B00013681B691843136818614868072817D218
:1012C0001068406B0B795B1E03EB83041F23A34064
:1012D000984313685863088880B20B795B1E03EB50
:1012E0008303984013685B6B18431368586331E0BD
:1012F00048680D2817D21068006B0B79DB1F03EBD1
:1013000083041F23A340984313681863088880B29E
:101310000B79DB1F03EB8303984013681B6B1843A7
:101320001368186316E01068C06A0B790D3B03EB75
:1013300083041F23A34098431368D862088880B2AF
:101340000B790D3B03EB830398401368DB6A18436A
:101350001368D8621D4B1068984208D1086812289B
:1013600005D11B48006840F48000C3F80403174B04
:101370001068984220D1144B0868984202D008683F
:10138000112819D11248006840F40000104B186071
:101390000D4B086898420FD10E4800680E4BB0FB09
:1013A000F3F000EB80004000009002E00098401E47
:1013B000009000980028F9D100BF002082F83C007E
:1013C00000BF00BF3AE700001200001000200140FB
:1013D00004230140CC04002040420F0070B50446B5
:1013E00000250CB9012070BD1549A06A884200D0C3
:1013F00000BF206C30B9204600F024F80020606463
:1014000084F83C00206C00F0100088B9206C20F4B7
:10141000885040F0020020642046FFF725FA0020A3
:101420006064206C20F0020040F00100206400E0C5
:10143000012500BF002084F83C0000BF2846D2E709
:101440000100000F10B586B00446142101A8FFF773
:1014500045F82249206888423DD100BF20480068F5
:1014600040F480601E4908600846006800F480600F
:10147000009000BF00BF00BF19481438006840F05A
:1014800020001749143908600846006800F0200061
:10149000009000BF00BF00BF0846006840F0040095
:1014A00008600846006800F00400009000BF00BF1C
:1014B00008150190032002900020039001A909481B
:1014C00000F02AFF0320019002900020039001A960
:1014D000054800F021FF06B010BD000000220140C9
:1014E00044380240001402400008024070B5034630
:1014F0000C4600201F2100BF0D1EA1F1010106D0E6
:1015000001F01F060125B5402540002DF4D08AB119
:10151000082A0BD0102A05D0182A0CD1072900D38D
:1015200001200AE0082900D3012006E0102900D399
:10153000012002E001E0012000BF00BF40B91D68AA
:101540006C611D68AD6825F0180515431E68B5600F
:1015500070BD000010B504460CB9012010BD607FBD
:1015600020B900202077204600F036F8022060776E
:10157000207948B91748216848612068806820F0C0
:1015800018002168886007E02046D4E90212FFF7BE
:10159000ADFF08B10120E1E7607920B94FF0FF30DD
:1015A0002168086102E0216820690861206880687C
:1015B00020F06000616908432168886020688068C5
:1015C00020F08000A16908432168886001206077CD
:1015D0000020C3E7B71DC10408B5094A016891425C
:1015E0000DD100BF0749096841F48051054A1160D7
:1015F0001146096801F48051009100BF00BF08BD89
:10160000003002403038024070B50446206800685F
:1016100020F00500001D2168086000F0A1FF0546CC
:1016200013E000F09DFF401BB0F57A7F0DD9E06B11
:1016300040F02000E063032084F8390000BF002060
:1016400084F8380000BF032070BD2068006800F0F7
:1016500001000028E5D12068006820F40C502168C2
:101660000860012084F8390000BF002084F83800A9
:1016700000BF00BFE8E72DE9F84304460F461546D2
:101680001E46DDE9088900BF94F83800012802D120
:101690000220BDE8F883012084F8380000BF022052
:1016A00084F8390020684561434632463946204671
:1016B000CDF80090FFF722FB2068006840F40C5042
:1016C000216808602068006840F001002168086017
:1016D0000020DEE770472DE9F04104460E46206801
:1016E00000F124072068006840F0040021680860C9
:1016F000012E02D1206800F11C0700F031FF0546E1
:1017000014E000F02DFF401BB0F57A7F0ED9E06B9E
:1017100040F02000E063032084F8390000BF00207F
:1017200084F8380000BF0320BDE8F081386800F07D
:1017300020000028E5D12068006820F4645021686A
:101740000860012084F8390000BF002084F83800C8
:1017500000BF00BFE8E7000070B502460C465068C5
:10176000B0F5403F02D0506800B100BF00BF92F812
:101770003800012801D1022070BD012082F8380014
:1017800000BF022082F8390002F1180000EB0411BA
:101790000E89486840EA0643214D48680A2802D06D
:1017A0004868092804D1C86800F07F40034302E07C
:1017B000087B43EA0063A4B91068406AA843184351
:1017C0001668706208681668B06148680A2802D016
:1017D0004868092819D1C86820F07F401668B062AF
:1017E00013E01068C069A84318431668F0610868E0
:1017F0001668306148680A2802D04868092804D170
:10180000C86820F07F4016683062012082F83900F5
:1018100000BF002082F8380000BF00BFACE7000026
:101820000F0003FF10B504460CB9012010BD244879
:10183000006800F4000020B32068006800F0010098
:1018400028B12046FFF7E0FED8B10120EEE720687E
:10185000406A00F02000202806D100212046FFF732
:101860003AFF70B10120E1E72068C06900F0200074
:10187000202806D101212046FFF72DFF08B10120C5
:10188000D4E70020216808603F202168886000209C
:1018900021680861216888612168C86121684862FF
:1018A00021684863204600F0F1F80020E06384F8E6
:1018B000390000BF84F8380000BF00BFB6E7000061
:1018C0003038024070B504462068456820680668D4
:1018D00005F00100E0B106F48070C8B1206800682E
:1018E00020F4807021680860E06B40F00100E06344
:1018F000012021688860042084F8390000BF00209E
:1019000084F8380000BF606910B1204661698847DB
:1019100005F02000E0B106F40050C8B1206800686E
:1019200020F4005021680860202021688860E06B66
:1019300040F00200E063042084F8390000BF00207A
:1019400084F8380000BF606910B12046616988479B
:1019500005F00800E0B106F40060C8B12068006836
:1019600020F4006021680860082021688860E06B2E
:1019700040F00400E063042084F8390000BF002038
:1019800084F8380000BF606910B12046616988475B
:1019900005F0040070B106F4806058B1206800685A
:1019A00020F4806021680860042021688860204657
:1019B00000F06BF805F00200D0B106F40070B8B189
:1019C0002068006820F40070216808600220216807
:1019D0008860E06BE063012084F8390000BF0020DC
:1019E00084F8380000BF206910B12046216988477B
:1019F00005F01000C0B106F48050A8B1206800685E
:101A000020F4805021680860102021688860E06B15
:101A1000E063012084F8390000BF002084F838001A
:101A200000BF2046FFF756FE70BD10B504460CB946
:101A3000012010BD94F8390028B9002084F838003E
:101A4000204600F037F8022084F83900206800684A
:101A500020F4403061680843216808602068406BCA
:101A600020F00700A1680843216848632068006CE3
:101A70006FF30D00E1680843216808640020E0630B
:101A8000012084F839000020D3E7704710B50446E0
:101A900006492068884208D10548006820F4000003
:101AA000034908605A2001F097F910BD00B00240C8
:101AB0003038024038B504460D492068884215D1B7
:101AC00000BF0C48006840F400000A49086008465E
:101AD000006800F40000009000BF00BF0022052154
:101AE0005A2001F0ABF95A2001F098F938BD0000F6
:101AF00000B00240303802402DE9F84304460D465C
:101B000016461F46DDF8208000BF94F838000128F3
:101B100002D10220BDE8F883012084F8380000BF1C
:101B2000022084F839003B46324629462046CDF84B
:101B30000080FFF7E3F82068006840F40C5021684B
:101B400008602068006840F00100216808600020FB
:101B5000E0E7014691F83500022803D0802048656F
:101B600001207047052081F835000868006820F0E2
:101B700001000A6810600020F3E770B504460CB954
:101B8000012070BD94F83500022800D1F9E72068E3
:101B9000006820F0010021680860002021680860CA
:101BA00021684860216888602168C86021680861F0
:101BB0002120216848612046FFF724F9054694F862
:101BC0005C103F208840A8600020E06320646064CF
:101BD000A064E0642065606584F8350000BF84F887
:101BE000340000BF00BFCCE70146486D70470000DD
:101BF000F8B50446002000908C4800684FF4165158
:101C0000B0FBF1F7A56D2E6894F85C1008208840B1
:101C1000304098B12068006800F0040070B120687E
:101C2000006820F004002168086094F85C10082027
:101C30008840A860606D40F00100606594F85C1019
:101C400001208840304068B12068406900F0800081
:101C500040B194F85C1001208840A860606D40F0AD
:101C60000200606594F85C1004208840304068B140
:101C70002068006800F0020040B194F85C10042075
:101C80008840A860606D40F00400606594F85C10C6
:101C900010208840304078B32068006800F00800C9
:101CA00050B394F85C1010208840A8602068006849
:101CB00000F4802080B12068006800F4002028B97A
:101CC000206CC8B12046216C884715E0A06C98B103
:101CD0002046A16C88470FE02068006800F48070FF
:101CE00028B92068006820F0080021680860206C8E
:101CF00010B12046216C884794F85C102020884061
:101D00003040002865D02068006800F010000028EE
:101D10005FD094F85C1020208840A86094F83500CB
:101D2000052828D12068006820F016002168086086
:101D30002068406920F0800021684861206C08B963
:101D4000A06C28B12068006820F0080021680860B5
:101D500094F85C103F208840A86000BF002084F801
:101D6000340000BF012084F83500206D10B12046FA
:101D7000216D8847F8BD2068006800F4802080B19C
:101D80002068006800F4002028B9606C10B120467B
:101D9000616C88471DE0E06BD8B12046E16B884755
:101DA00017E02068006800F4807068B92068006857
:101DB00020F010002168086000BF002084F8340083
:101DC00000BF012084F83500E06B10B12046E16BC4
:101DD0008847606D38B3606D00F00100F0B10520F8
:101DE00084F835002068006820F001002168086050
:101DF00000BF0098401C0090B84200D905E0206860
:101E0000006800F001000028F3D100BF00BF0020EF
:101E100084F8340000BF012084F83500E06C10B174
:101E20002046E16C884700BFA4E70000CC040020F6
:101E30002DE9F0410446002500F092FB074614B955
:101E40000120BDE8F081606A00B100BF00BF002042
:101E500084F8340000BF022084F835002068006850
:101E600020F00100216808600AE000F079FBC01B47
:101E7000052805D920206065032084F83500E0E7B7
:101E80002068006800F001000028EED12068056895
:101E900021480540D4E901010843E168084321696C
:101EA000084361690843A1690843E1690843216A5D
:101EB00008430543606A042803D1D4E90B010843B1
:101EC0000543206805602068456925F00705606ABC
:101ED0000543606A04280DD1A06A0543E06A48B151
:101EE0002046FEF7A9FF28B140206065012084F854
:101EF0003500A6E7206845612046FEF783FF0646C9
:101F000094F85C103F208840B0600020606501209C
:101F100084F83500002094E73F8010F02DE9F04769
:101F200004460D4616461F464FF00008D4F8589058
:101F300000BF94F83400012802D10220BDE8F087E8
:101F4000012084F8340000BF94F8350001282BD11B
:101F5000022084F83500002060653B463246294661
:101F60002046FEF7BEFF94F85C103F208840C9F879
:101F700008002068006840F01600216808602068AA
:101F8000406940F0800021684861206C28B12068D9
:101F9000006840F00800216808602068006840F090
:101FA00001002168086006E000BF002084F83400CA
:101FB00000BF4FF002084046C0E7000070B504467D
:101FC00000F0CEFA06462546681C10B10448007899
:101FD000054400BF00F0C4FA801BA842FAD370BDCC
:101FE000C80400200348006840F00100014908606F
:101FF00070470000203801400348006840F000406E
:102000000149086000207047103C024010B50548A7
:10201000006840F00200034908604CF25030FFF7BE
:1020200015F810BD143C02400748006800F001009C
:1020300030B1064804490C3908600548086001E0E1
:10204000012070470020FCE7143C02403B2A19089D
:102050007F6E5D4C00200949096801F0004159B1CB
:102060000749064A0C3A116006491160034909689C
:1020700001F0004101B1012070470000103C024016
:1020800023016745AB89EFCD00B587B0142102A8C5
:10209000FEF724FA3848006808B107B000BD0120F7
:1020A0003549086000BF3548006840F001003349F9
:1020B00008600846006800F00100019000BF00BF02
:1020C00040F2FF6002900220039000200490032061
:1020D00005900C20069002A9294800F01DF94FF642
:1020E0003F000290022003900020049003200590FE
:1020F0000C20069002A9234800F00EF94FF62C7030
:1021000002900220039000200490032005900C20F0
:10211000069002A91C4800F0FFF848F23310029024
:102120000220039000200490032005900C200690CC
:1021300002A9164800F0F0F84FF6837002900220D2
:10214000039000200490032005900C20069002A923
:102150000F4800F0E1F84CF2037002900220039067
:1021600000200490032005900C20069002A9094845
:1021700000F0D2F800BF90E7000400203838024099
:102180000020024000140240001C024000180240DF
:1021900000100240000C0240F0B50C460025002261
:1021A000002300219CE0012606FA01F504EA05025D
:1021B000AA427CD14C4E8F0856F827308E07370F35
:1021C0000F26BE403340494EB04201D100262DE0DB
:1021D000474EB04201D1012628E0464EB04201D11F
:1021E000022623E0444EB04201D103261EE0434EB6
:1021F000B04201D1042619E0414EB04201D105267A
:1022000014E0404EB04201D106260FE03E4EB042EF
:1022100001D107260AE03D4EB04201D1082605E073
:102220003B4EB04201D1092600E00A268F073F0F3E
:10223000BE409E4222D18E07370F0F2606FA07F3C3
:10224000294E8F0856F827609E43274F4FEA910C7E
:1022500047F82C602F4E366896432E4F3E603E1D49
:10226000366896433F1D3E603E1D366896433F1DCF
:102270003E603E1D366896433F1D3E6006684FEA4D
:10228000410C032707FA0CF7BE430660CF0800F1A4
:10229000200656F827604F074FEAD76C0F2707FA3A
:1022A0000CF7BE434FEAD10C00F1200700E016E026
:1022B00047F82C6086684FEA410C032707FA0CF7B1
:1022C000BE438660466801278F40BE434660C668AD
:1022D0004FEA410C032707FA0CF7BE43C660491CBE
:1022E0001029FFF460AFF0BD083801400000024043
:1022F0000004024000080240000C024000100240AE
:102300000014024000180240001C0240002002405D
:1023100000240240003C0140F8B502460B46002173
:1023200000250024002000BFE4E0012606FA01F5A4
:102330001E6806EA0504AC4271D15E68022E02D026
:102340005E68122E13D1CF0802F1200656F827003E
:102350004E07F70E0F26BE40B0434F07FF0E1E6913
:10236000BE403043CF0802F1200646F8270010682F
:102370004F000326BE40B0431E7906F003064F000F
:10238000BE40304310605E68012E08D05E68022EA9
:1023900005D05E68112E02D05E68122E13D19068AF
:1023A0004F000326BE40B0434F00DE68BE403043BE
:1023B0009060506801268E40B0431E79C6F3001627
:1023C0008E4030435060D0684F000326BE40B0437B
:1023D0004F009E68BE403043D0605E6806F0805675
:1023E000B6F1805FA8D100BF444E366846F48046FF
:1023F000424F3E603E46366806F48046009600BF77
:1024000000BF3F4E8F0856F827008E07370F0F2664
:10241000BE40B0433B4EB24202D100262EE068E0FF
:10242000394EB24201D1012628E0384EB24201D1E4
:10243000022623E0364EB24201D103261EE0354E7D
:10244000B24201D1042619E0334EB24201D1052631
:1024500014E0324EB24201D106260FE0304EB242B5
:1024600001D107260AE02F4EB24201D1082605E02D
:102470002D4EB24201D1092600E00A268F073F0FF8
:10248000BE4030431E4E8F0846F82700274E306866
:10249000A0435E6806F48036B6F5803F00D1204345
:1024A000224E3060361D3068A0435E6806F4003668
:1024B000B6F5003F00D120431C4E361D3060361D5E
:1024C0003068A0435E6806F48016B6F5801F00D120
:1024D0002043164E08363060361D3068A0435E68D3
:1024E00006F40016B6F5001F00D120430F4E0C363F
:1024F0003060491C1029FFF418AFF8BD4438024081
:102500000838014000000240000402400008024078
:10251000000C02400010024000140240001802406B
:10252000001C02400020024000240240003C014008
:10253000024613690B400BB1012000E000207047F8
:1025400042690A408A4202D10A04826100E0816144
:1025500070470AB1816101E00B048361704700009C
:102560000148006870470000C0040020024692F84D
:10257000410020282DD100BF92F84000012801D150
:1025800002207047012082F8400000BF242082F81A
:1025900041001068006820F001001368186010689E
:1025A000006820F4805013681860106800680843C1
:1025B000136818601068006840F001001368186024
:1025C000202082F8410000BF002082F8400000BFB8
:1025D000D7E70220D5E710B502460B4692F8410036
:1025E00020282AD100BF92F84000012801D1022002
:1025F00010BD012082F8400000BF242082F8410075
:102600001068006820F001001468206010680168FC
:1026100021F4706141EA03211068016010680068CC
:1026200040F0010014682060202082F8410000BFC3
:10263000002082F8400000BFDAE70220D8E700005F
:1026400010B504460CB9012010BD94F8410028B91A
:10265000002084F84000204600F054F8242084F83C
:1026600041002068006820F001002168086060686F
:1026700020F07060216808612068806820F40040C4
:1026800021688860E068012805D1A06840F4004016
:102690002168886004E0A06840F4044021688860F4
:1026A000E068022802D18002216848602068406802
:1026B00013490843216848602068C06820F400403E
:1026C0002168C860D4E904010843A16940EA0120F7
:1026D0002168C860D4E907010843216808602068C0
:1026E000006840F00100216808600020606420203C
:1026F00084F841000020206384F8420000BFA3E773
:102700000080000210B586B00446142101A8FDF730
:10271000E5FE1949206888422CD100BF174800689F
:1027200040F00200154908600846006800F0020009
:10273000009000BF00BF4FF4107001901220029073
:1027400001200390032004900420059001A90C4867
:10275000FFF7E2FD00BF09481030006840F40010A8
:102760000649103108600846006800F40010009027
:1027700000BF00BF06B010BD00540040303802401A
:1027800000040240034800680349097808440149ED
:1027900008607047C0040020C804002010B50A4833
:1027A000006840F40070084908600846006840F47A
:1027B00080700860032000F07FFB002000F006F826
:1027C00000F0DCFA002010BD003C024070B588B07B
:1027D00004460025002600222146362000F02EFB6C
:1027E000362000F01BFB00BF1648006840F01000C8
:1027F000144908600846006800F01000019000BF0E
:1028000000BF02A903A801F08DFE01F0B3FE450050
:102810000D48B5FBF0F0461E0C480D49086040F22B
:10282000E7310B48C160466000210161816002F020
:1028300067FE20B9064802F0C7FE08B070BD01204F
:10284000FBE700004038024040420F00001000400B
:102850005810002070B504460E46154600BF94F887
:10286000A000012801D1022070BD012084F8A00041
:1028700000BF022084F8A10005EB850101EBC50231
:1028800004F1380101EB820034223146FDF7ECFD02
:102890002A463146204603F0B9FB012021684862F0
:1028A00084F8A10000BF002084F8A00000BF00BF92
:1028B000DAE7704770B504462068856B2068466B80
:1028C00005F00400E0B106F00400C8B12068406BD8
:1028D00020F004002168486304202168C863D4F80C
:1028E000A40040F00100C4F8A400042084F8A10072
:1028F00000BF002084F8A00000BF2046FFF7D9FFEA
:1029000005F00200E0B106F00200C8B12068406B9B
:1029100020F002002168486302202168C863D4F8CF
:10292000A40040F00200C4F8A400042084F8A10030
:1029300000BF002084F8A00000BF2046FFF7B9FFC9
:1029400005F00100A8B106F0010090B12068406BCD
:1029500020F001002168486301202168C86384F8E1
:10296000A10000BF002084F8A00000BF204600F0B6
:10297000A7F805F00800B0B106F0080098B120688B
:10298000406B20F008002168486308202168C86374
:10299000012084F8A10000BF002084F8A00000BF3F
:1029A000204600F085F970BD70B504460CB90120D1
:1029B00070BD94F8A10028B9002084F8A00020463A
:1029C00000F0BCF8022084F8A1002068806920F0A3
:1029D000704021688861D4E901010843E168084337
:1029E0002169084321688969084321688861206852
:1029F00080683249084021688860A08A0504206800
:102A00008068A16929430843216888602068C068FC
:102A10002A4908402168C860A08B05042068C06866
:102A2000216A294308432168C86020680069234956
:102A3000084021680861A08C050420680069A16A2B
:102A40002943084321680861206840691B49084000
:102A500021684861A08D050420684069216B2943E5
:102A600008432168486194F83500050294F836005F
:102A700006042068C06A00F07F402168C86246EA08
:102A8000050094F8341008432168C96A0843216896
:102A9000C8622068406B40F00600216848632068E7
:102AA000806940F00100216888610020C4F8A4001A
:102AB000012084F8A10000207AE7000000F800F06F
:102AC00070B50546194800681949098888421AD125
:102AD00018480188284600F0C1F800BF1649086868
:102AE00000BF90F86610491C80F8661000BF09F01E
:102AF0009FF800BF1048006804460AF091FD0020CE
:102B00000BF062FD11E00A480188284600F0A6F8A3
:102B100000200BF05AFD00BF0748046800BF206882
:102B200081692046884700BF00BF70BD40680140F2
:102B30003A0400203C0400209C07002010B586B019
:102B40000446142101A8FDF7C9FC3F4920688842CA
:102B500077D100BF3D48006840F080603B49086085
:102B60000846006800F08060009000BF00BF00BF12
:102B700036481438006840F48070344914390860CD
:102B80000846006800F48070009000BF00BF00BFDE
:102B90000846006840F4007008600846006800F4C9
:102BA0000070009000BF00BF00BF0846006840F4FE
:102BB000806008600846006800F48060009000BFF4
:102BC00000BF4FF4E04001900220029000200390EB
:102BD000012004900E20059001A91D48FFF79CFBE1
:102BE0004FF40040019002200290002003900490D6
:102BF0000E20059001A91648FFF78EFB4FF6FF70D7
:102C00000190022002900020039004900E20059075
:102C100001A91048FFF780FBFF20019002200290DD
:102C20000020039004900E20059001A90A48FFF7A8
:102C300073FB00220521582000F000F9582000F015
:102C4000EDF806B010BD00000068014044380240B5
:102C5000002002400024024000280240024600BF3B
:102C600092F8A000012801D102207047012082F8CB
:102C7000A00000BF022082F8A1001068406B20F085
:102C8000010013685863094801601068406B40F008
:102C9000010013685863012082F8A10000BF0020E2
:102CA00082F8A00000BF00BFDFE7000040680140DD
:102CB00070470000F0B503460D4600BF93F8A00032
:102CC000012801D10220F0BD012083F8A00000BF3F
:102CD000022083F8A10002EB820000EBC20703F19F
:102CE000380000EB8700016909B904240EE00129CE
:102CF00001D103240AE0042905D0022903D00329C5
:102D000001D0072901D1022400E0012405FB04F0D1
:102D1000060418688430802707FB0200C06A154F3C
:102D200038401F6884374FF0800C0CFB0277F86244
:102D30001148006840F001000F4F38601868843077
:102D4000802707FB0200C06A30431F6884370CFBF2
:102D50000277F8620848006840F00100064F3860CA
:102D6000012083F8A10000BF002083F8A00000BF6D
:102D700000BFA8E7FFFF00E02468014008B500BFDE
:102D80001448006840F08050124908600846006806
:102D900000F08050009000BF00BF00BF081D006819
:102DA00040F48040091D08600846006800F4804037
:102DB000009000BF00BF00220F21901E00F03EF8DF
:102DC00000220521012000F039F8012000F026F84A
:102DD00008BD00004038024010B5014608460028F2
:102DE00017DB00F01F0301229A400B4B440943F804
:102DF000242000BF00BF00BFBFF34F8F00BF00BF44
:102E000000BF00BF00BF00BFBFF36F8F00BF00BF98
:102E100000BF00BF10BD000080E100E00146084691
:102E2000002809DB00F01F0301229A4043099B00A0
:102E300003F1E023C3F8002100BF70472DE9F05FE4
:102E400080460D46164600270EF0EEFE0746394630
:102E50002A46334601F00700C0F1070ABAF1040F11
:102E600002D94FF0040A01E0C0F1070AD14600F18F
:102E7000040ABAF1070F02D24FF0000A01E0A0F1F4
:102E8000030AD4464FF0010A0AFA09FAAAF1010A24
:102E90000AEA020A0AFA0CFA4FF0010B0BFA0CFBD1
:102EA000ABF1010B0BEA030B4AEA0B042146404647
:102EB0000EF0C2FEBDE8F09F00BF00F00702064B17
:102EC00019684FF6FF031940044B0B4343EA0221F4
:102ED000014B196000BF70470CED00E00000FA05DF
:102EE00001460A680120C1F8FC03002081F8F403C0
:102EF000906940F000609061506D024B184350653E
:102F0000002070470300001070B504460D4615B14F
:102F1000012D2CD116E0206A38B105F057F815487C
:102F2000006820F00600134908602068D0F8000E01
:102F300020F001002168C1F8000ED4F8000406F06A
:102F40007CFC14E02068D0F8000E40F001002168FD
:102F5000C1F8000ED4F8000406F0FFFC206A28B186
:102F60000448006840F006000249086000BF00BF46
:102F700070BD000010ED00E00246106841620020C4
:102F80007047F0B5034615461868446A21B944EA0B
:102F900005401E68B06219E01868806A04EB1044AE
:102FA000002208E0186800F5827050F8220004EB57
:102FB0001044501CC2B2481E9042F3D844EA054760
:102FC000186800F582704E1E40F826700020F0BD93
:102FD00010B50446D4F8000406F060FB10BD70B5CF
:102FE00004460D46C5EBC50304F13C0101EB83012A
:102FF000CA682946D4F8000406F094FA70BD70B58A
:1030000004460D46C5EBC50304F5FE7101EB8301D3
:10301000CA682946D4F8000406F0F7FA70BD10B566
:103020000446D4F8000406F03CFB10BD70B504461D
:103030000E4606F0800080280AD106F00F00C0EB93
:10304000C00104F13C0000EB81050120687009E03B
:1030500006F00F00C0EBC00104F5FE7000EB810527
:103060000020687006F00F00287000BF94F8BC03C1
:10307000012801D1022070BD012084F8BC0300BFEB
:103080002946206807F020F800BF002084F8BC0320
:1030900000BF00BFEFE770B504460E4606F00F0014
:1030A0006168884201D9012070BD06F08000802847
:1030B0000AD106F00F00C0EBC00104F13C0000EBA8
:1030C00081050120687009E006F00F00C0EBC00127
:1030D00004F5FE7000EB8105002068700020A870E8
:1030E00006F00F00287000BF94F8BC03012801D13E
:1030F0000220D9E7012084F8BC0300BF29462068DC
:1031000007F088FA00BF002084F8BC0300BF00BFAE
:10311000CAE7024601F00F00C0EBC00302F5FE70E3
:1031200000EB8300806970472DE9F04705460E46A5
:1031300090461F464FF0000906F0800080280AD113
:1031400006F00F00C0EBC00105F13C0000EB81046C
:103150000120607009E006F00F00C0EBC00105F52A
:10316000FE7000EB81040020607006F00F002070FC
:10317000C4F80880E770607808B12078E080022FFA
:1031800001D10020207100BF95F8BC03012802D1B5
:103190000220BDE8F087012085F8BC0300BF21466E
:1031A000286806F0A3FE00BF002085F8BC0300BF1E
:1031B0004846EEE72DE9F04104460E46174698468C
:1031C00006F00F00C0EBC00104F5FE7000EB8105B6
:1031D000EF60C5F814800020A861687006F00F0049
:1031E00028702069012800D12F6106F00F0028B94E
:1031F000227C2946206807F0F5F804E0227C294665
:10320000206807F09BFA0020BDE8F08170B5044605
:103210000D4605F00F006168884201D9012070BD9C
:1032200005F0800080280AD105F00F00C0EBC00136
:1032300004F13C0000EB81060120707007E0C5EB53
:10324000C50104F5FE7000EB8106002070700120BE
:10325000B07005F00F00307000BF94F8BC03012877
:1032600001D10220DBE7012084F8BC0300BF314616
:10327000206807F016FA05F00F0028B9217C04F544
:103280007172206807F08EF900BF002084F8BC033B
:1032900000BF00BFC3E72DE9F04104460E461746C4
:1032A000984606F00F00C0EBC00104F13C0000EBB3
:1032B0008105EF60C5F814800020A86101206870C6
:1032C00006F00F0028702069012800D12F6106F058
:1032D0000F0028B9227C2946206807F083F804E013
:1032E000227C2946206807F029FA0020BDE8F081F9
:1032F0002DE9FE4F044620680290029D00262068BA
:1033000007F0DDFB00287DD1206807F017FC08B925
:10331000BDE8FE8F206807F011FC00F002000228D3
:1033200005D12068406900F00200216848612068EA
:1033300007F004FC00F40020B0F5002F58D100265F
:10334000206807F0CBFB82464FE00AF0010000281E
:1033500048D0F1B2206807F0E4FB804608F0010095
:1033600048B1012105F5306000EB4610816031461F
:10337000204603F06FFC08F00800082809D1314608
:10338000204603F021FC082105F5306000EB4610D3
:10339000816008F01000102805D1102105F530607B
:1033A00000EB4610816008F0200020280ED1206933
:1033B000012805D104F571720121206807F0F2F8A7
:1033C000202105F5306000EB4610816008F40050C4
:1033D000B0F5005F06D14FF4005105F5306000EB09
:1033E00046108160761C4FEA5A0ABAF1000FACD140
:1033F000206807F0A3FB00F48020B0F5802F7CD17B
:10340000206800E037E207F05FFB8246002686E096
:103410000AF0010000287FD0F1B2206807F068FBB5
:10342000804608F00100E8B306F00F010120884053
:10343000019040F634004159019821EA000040F61D
:1034400034014851012105F5106000EB4610816000
:103450002069012815D1C6EBC60104F13C0000EB40
:103460008100C6EBC602C16804F13C0000EB82009B
:1034700080680144C6EBC60204F13C0000EB820008
:10348000C160F1B22046FFF7AAFD2069012810D1E2
:1034900046B9C6EBC60104F13C0000EB810040696F
:1034A00000B900E005E004F571720121206807F021
:1034B00079F808F00800082805D1082105F5106002
:1034C00000EB4610816008F01000102805D1102193
:1034D00005F5106000EB4610816008F040004028C0
:1034E00005D1402105F5106000EB4610816008F021
:1034F0000200022808D1022101E014E00CE005F5E9
:10350000106000EB4610816008F08000802803D135
:103510003146204603F05EFC761C4FEA5A0ABAF1A7
:10352000000F7FF475AF206807F008FB00F0004043
:10353000B0F1004F1CD140F60400405920F00101C9
:1035400040F60400415194F8F403012807D100200B
:1035500084F8F40300212046FFF7D6FC02E0204661
:1035600000F0BEFA2068406900F000402168486120
:10357000206807F0E3FA00F40060B0F5006F0ED1A8
:1035800040F60800405900F0010010B1204600F05C
:10359000F3FA2068406900F40060216848612068FF
:1035A00007F0CCFA00F00060B0F1006F19D120688C
:1035B000406900F000602168486194F8F40368B93C
:1035C000012084F8F4032068406DC0F38300C4F840
:1035D000F80301212046FFF797FC02E0204600F0A7
:1035E000CBFA206807F0AAFA00F48050B0F5805FAB
:1035F00072D140F60400405920F0010140F6040069
:1036000041511021206807F02FFA002726E04FF6DD
:103610007F3105F5106000EB4710816005F5106003
:1036200000EB4710006820F4001105F5106000EB76
:10363000471001604FF67F3105F5306000EB471011
:10364000816005F5306000EB4710006820F4001140
:1036500005F5306000EB471001607F1C6068B842E0
:10366000D5D840F61C00405940F0011140F61C002E
:103670004151206B70B1D5F8840840F00B01C5F8BA
:10368000841840F64400405940F00B0140F64400D5
:1036900041510FE040F61400405942F22B0108431B
:1036A00040F614014851081F405940F00B014FF4F7
:1036B00001604151D5F8000820F4FE60C5F800080B
:1036C000217C04F57172206806F06CFF2068406967
:1036D00000F4805021684861206807F02FFA00F458
:1036E0000050B0F5005F1CD1206806F067FC206830
:1036F00007F0D2F910B90021E16001E00321E16097
:1037000000F032FF0090227B2068009907F066FAF3
:10371000204600F0CDF92068406900F4005021688F
:103720004861206807F00AFA00F01000102846D11E
:103730002068806920F01000216888610298D0F824
:10374000209009F00F00C0EBC00104F5FE7000EB03
:10375000810BC9F3434002281AD147F6F07009EAF9
:10376000000030B3C9F30A12DBF80C10029807F01E
:10377000EAF9C9F30A11DBF80C000844CBF80C0095
:10378000C9F30A11DBF818000844CBF8180010E060
:10379000C9F3434006280CD1082204F57171029840
:1037A00007F0D1F9C9F30A11DBF818000844CBF887
:1037B00018002068806940F0100021688861206846
:1037C00007F0BCF900F00800082808D1204600F0F6
:1037D0008EF92068406900F008002168486120687F
:1037E00007F0ACF900F48010B0F5801F09D1F1B2F8
:1037F000204600F042F82068406900F480102168FB
:103800004861206807F09AF900F40010B0F5001F35
:1038100009D1F1B2204600F039F82068406900F47F
:10382000001021684861206807F088F900F08040A6
:10383000B0F1804F08D12046FFF7CAFB20684069ED
:1038400000F0804021684861206807F077F900F0B7
:10385000040004280FD12068D0F8049009F0040077
:10386000042802D12046FFF7DAFB2068406840EACE
:1038700009002168486000BF4AE570B504460D465E
:103880002946D4F8000405F075FF70BD70B50446F4
:103890000D462946D4F8000405F06FFF70BD30B521
:1038A0008BB0044614B901200BB030BD94F8BD03B1
:1038B00028B9002084F8BC03204600F0A3F80320B8
:1038C00084F8BD03206806F085FD282204F110016C
:1038D0006846FCF7C9FD94E80F0006F093FB20B1A1
:1038E000022084F8BD030120DEE70021206807F0F4
:1038F0003BF9002531E00121C5EBC50204F13C0094
:1039000000EB82004170C5EBC50104F13C0000F8FA
:103910002150C5EBC50100EB8100C5800021C5EB3E
:10392000C50204F13C0000EB8200C170C5EBC5028A
:1039300004F13C0000EB82008160C5EBC50204F19C
:103940003C0000EB8200C160C5EBC50204F13C0005
:1039500000EB82004161681CC5B26068A842CAD809
:1039600000252AE00021C5EBC50204F5FE7000EB3E
:1039700082004170C5EBC50104F5FE7000F82150CE
:103980000021C5EBC50200EB8200C170C5EBC5028A
:1039900004F5FE7000EB82008160C5EBC50204F502
:1039A000FE7000EB8200C160C5EBC50204F5FE703D
:1039B00000EB82004161681CC5B26068A842D1D8A2
:1039C000282204F110016846FCF74EFD94E80F0030
:1039D00006F0FCFB20B1022084F8BD03012063E760
:1039E000002084F83800012084F8BD03606A0128B3
:1039F00002D12046FFF774FA206806F0D7FB0020BA
:103A000052E7000010B588B00446142103A8FCF763
:103A100065FD2068B0F1A04F44D100BF2248006886
:103A200040F00100204908600846006800F00100ED
:103A3000029000BF00BF4FF4C050039002200490DA
:103A400000200590032006900A20079003A917483C
:103A5000FEF762FC00BF1448001D006840F08000C3
:103A60001149091D08600846006800F080000290B6
:103A700000BF00BF0C481430006840F480400A4981
:103A8000143108600846006800F48040019000BFCF
:103A900000BF00BF002205214320FFF7CFF94320DC
:103AA000FFF7BCF908B010BD3038024000000240FA
:103AB00070B504460125E06808B9002506E0E06815
:103AC000022801D1012501E0FDF722FA2946D4F8A8
:103AD000000405F0CEFED4F8000405F081FE70BDB0
:103AE00010B50446D4F8000405F0A7FE10BD10B5CB
:103AF0000446D4F8000405F0ABFE10BD70B50446D2
:103B00000D4600BF94F8BC03012801D1022070BD0E
:103B1000012084F8BC0300BF84F83850294620688F
:103B200007F03DF800BF002084F8BC0300BF00BFD1
:103B3000EDE710B5044604F57171D4F8000405F002
:103B4000AFFE10BD10B5044600BF94F8BC030128B9
:103B500001D1022010BD012084F8BC0300BF206801
:103B600006F014FB206806F061FF00BF002084F817
:103B7000BC0300BF00BFEDE710B50446D4F8000455
:103B800005F0EBFE2068D0F8000E40F0010021683F
:103B9000C1F8000E206A28B10348006840F0060012
:103BA0000149086010BD000010ED00E038B50024A8
:103BB00000BF2048006840F080501E490860084659
:103BC000006800F08050009000BF00BF1A480068F5
:103BD00040F4803018490860FEF7C2FC044607E054
:103BE000FEF7BEFC001BB0F57A7F01D9032038BD7B
:103BF0001148406800F48030B0F5803FF0D10E48A5
:103C0000006840F400300C490860FEF7A9FC044647
:103C100007E0FEF7A5FC001BB0F57A7F01D9032071
:103C2000E5E70548406800F40030B0F5003FF0D10A
:103C30000020DCE740380240007000400348006884
:103C400040F4807001490860704700000070004037
:103C50000E4A126822F004020C4B1A6000BF00BF2B
:103C600000BFBFF34F8F00BF00BF00BF00BF00BF4A
:103C700000BFBFF36F8F00BF00BF00BF012901D19C
:103C800030BF02E040BF20BF20BF704710ED00E012
:103C90007047000010B50648006800F4803028B175
:103CA000FFF7F6FF4FF480300149086010BD0000B7
:103CB000143C01402DE9F843044600260025002766
:103CC000A846A946207800F0010088B100BFFE4850
:103CD000006820F40000FC49086008460068616B39
:103CE0000843F949086000BF606B08B94FF001084C
:103CF000206800F40020B0F5002F13D1F248843082
:103D0000006820F44010E16B0843EF4984310860FB
:103D1000E06BB0F5801F01D14FF00108E06B08B9EE
:103D20004FF00109206800F48010B0F5801F13D116
:103D3000E5488430006820F44000216C0843E249E3
:103D400084310860206CB0F5800F01D14FF001087C
:103D5000206C08B94FF00109206800F08070B0F1C4
:103D6000807F01D14FF00108207800F0200020284A
:103D700070D100BFD4483830006840F08050D2493C
:103D8000383108600846006800F08050009000BF9D
:103D900000BFCE48006840F48070CC490860FEF750
:103DA000DFFB064607E0FEF7DBFB801B642802D939
:103DB0000320BDE8F883C548006800F4807000283F
:103DC000F1D0C1486830006800F4407585B3208E9A
:103DD00000F44070A8422BD0BB486830006820F443
:103DE0004075B9486830006840F48030B6496831A1
:103DF00008600846006820F48030086008460560C6
:103E0000006800F0010098B1FEF7AAFB064608E042
:103E1000FEF7A6FB801B41F28831884201D90320BE
:103E2000C7E7A94868300068C0F340000028EFD019
:103E300000BF208E00F44070B0F5407F0BD1A24847
:103E4000006820F4F810A24A216B114008439E49F3
:103E5000086006E010E09C48006820F4F8109A49D9
:103E60000860994868300068218EC1F30B0108434F
:103E700095496831086000BF207800F010001028D4
:103E800010D100BF90488430006820F080708E49C7
:103E90008431086008460068A16B08438A49843170
:103EA000086000BF208800F48040B0F5804F09D141
:103EB00085488830006820F44030616E08438249AC
:103EC00088310860208800F40040B0F5004F09D127
:103ED0007D488830006820F44020A16E08437A496C
:103EE00088310860206800F48030B0F5803F09D147
:103EF00075488830006820F44010E16E084372492C
:103F000088310860206800F40030B0F5003F09D126
:103F10006D488830006820F44000216F08436A49EA
:103F200088310860207800F04000402809D16648B8
:103F30008830006820F00300616C084362498831D2
:103F40000860207800F08000802809D15E48883021
:103F5000006820F00C00A16C08435B4988310860C0
:103F6000208800F48070B0F5807F09D156488830F1
:103F7000006820F03000E16C084353498831086044
:103F8000208800F40070B0F5007F09D14E488830D9
:103F9000006820F0C000216D08434B49883108605B
:103FA000208800F48060B0F5806F09D146488830E1
:103FB000006820F44070616D08434349883108600F
:103FC000208800F40060B0F5006F09D13E488830C9
:103FD000006820F44060A16D08433B4988310860C7
:103FE000208800F48050B0F5805F09D136488830D1
:103FF000006820F44050E16D08433349883108607F
:10400000208800F40050B0F5005F09D12E488830B8
:10401000006820F44040216E08432B498831086035
:10402000206800F48000B0F5800F09D12648883060
:10403000006820F08060A16F084323498831086040
:10404000206800F40010B0F5001F0FD11E48883022
:10405000006820F00060E16F08431B498831086068
:10406000E06FB0F1006F01D14FF00109207800F04E
:104070000800082801D14FF00109206800F48020D1
:10408000B0F5802F09D110488830006820F04070CA
:10409000616F08430C4988310860206800F4000013
:1040A000B0F5000F0AD108488830006820F0805031
:1040B000D4F880100843044988310860B8F1010F32
:1040C0000BD0206806E00000083802400070004075
:1040D000FFFCFF0FB0F1007F7DD1AD48006820F0FC
:1040E0008060AB490860FEF73BFA064606E0FEF743
:1040F00037FA801B642801D903205AE6A4480068D7
:10410000C0F3C0600028F2D1207800F00100B8B1FF
:10411000606BA8B99E4884300068C0F301459C4894
:1041200084300068C0F303676068800140EA05409E
:1041300040EA0761207A41EA0070954984310860BD
:10414000206800F40020B0F5002F03D1E06BB0F53B
:10415000801F09D0206800F48010B0F5801F24D1A2
:10416000206CB0F5800F20D1894884300068C0F3FE
:104170000145874884300068C0F302776068800199
:1041800040EA0541207B41EA006040EA077080492F
:10419000843108607E488C30006820F01F00616A1E
:1041A000491E08437A498C310860206800F080700D
:1041B000B0F1807F17D1764884300068C0F3036582
:1041C000734884300068C0F3027760688101208AF8
:1041D00041EA004000E031E040EA056040EA077053
:1041E0006B4984310860206800F00070B0F1007FF6
:1041F0000DD160688101208A41EA0041207B41EABB
:104200000061207A41EA00706149843108606048A9
:10421000006840F080605E490860FEF7A1F906463C
:1042200006E0FEF79DF9801B642801D90320C0E554
:1042300057480068C0F3C0600028F2D0B9F1010F00
:104240007ED15348006820F0805051490860FEF745
:1042500087F9064606E0FEF783F9801B642801D93A
:104260000320A6E54A480068C0F340700028F2D158
:10427000206800F40020B0F5002F01D1E06B38B1C8
:10428000206800F48010B0F5801F22D1206C00BBA4
:104290003F4888300068C0F301453D4888300068D9
:1042A000C0F302776069800140EA0541207E41EA5F
:1042B000006040EA0770364988310860081D0068D0
:1042C00020F4F851A06A401E41EA002030498C31A8
:1042D0000860206800F40010B0F5001F19D1E06FED
:1042E000B0F1006F15D12A4888300068C0F303652B
:1042F000274888300068C0F3027760698101208C0C
:1043000041EA004040EA056040EA077020498831F0
:104310000860207800F00800082820D11C48883068
:104320000068C0F303651A4888300068C0F301478D
:104330006069800140EA074040EA0561207F00E0B3
:1043400024E041EA0070124988310860081D0068C5
:1043500020F44030E16A08430D498C3108600C4874
:10436000006840F080500A490860FEF7F9F80646F8
:1043700006E0FEF7F5F8801B642801D9032018E554
:1043800003480068C0F340700028F2D0002010E518
:104390000038024070B504460D4600260CB90120D5
:1043A00070BD5C48006800F00F00A8420ED259486A
:1043B000006820F00F00284356490860084600684E
:1043C00000F00F00A84201D00120E9E7207800F0BA
:1043D000020002281DD1207800F00400042805D135
:1043E0004D48006840F4E0504B490860207800F0E8
:1043F0000800082805D14848006840F46040464954
:1044000008604548006820F0F000A1680843424970
:104410000860207800F0010090B36068012807D19F
:104420003D4808380068C0F34040A0B90120B7E714
:104430006068022807D1384808380068C0F3406037
:1044400048B90120ACE7344808380068C0F34000A0
:1044500008B90120A4E73048006820F00300616833
:1044600008432D490860FEF77BF8064609E0FEF791
:1044700077F8801B41F28831884202D903208FE708
:1044800007E02548006800F00C006168B0EB810F80
:10449000EDD12048006800F00F00A8420ED91D4859
:1044A000006820F00F0028431A4908600846006899
:1044B00000F00F00A84201D0012071E7207800F041
:1044C0000400042807D11448006820F4E050E16893
:1044D000084311490860207800F00800082808D136
:1044E0000D48006820F46040216940EAC1000A4993
:1044F000086000F05FF808490968C1F30311074A32
:10450000515CC840064908600020FEF75FF90020B2
:1045100046E70000003C024008380240406D0208B7
:10452000CC0400200F2202600D4A126802F0030240
:1045300042600B4A126802F0F0028260084A126878
:1045400002F4E052C260064A126802F46042D208E5
:104550000261044A126802F00F020A60704700000C
:1045600008380240003C02400148006870470000E3
:10457000CC04002000B5FFF7F7FF04490968C1F338
:104580008221034A515CC84000BD00000838024047
:10459000506D020800B5FFF7E7FF04490968C1F351
:1045A0004231034A515CC84000BD00000838024057
:1045B000506D02082DE9F047002400250026A14691
:1045C0002548006800F00C0020B1042805D0082818
:1045D0003AD105E0DFF8849039E0DFF8849036E0E6
:1045E0001D48001F006800F03F041B48001F0068C2
:1045F00000F4800078B11A481749091F0968C1F30F
:104600008811A0FB01700146224600233846FBF7C3
:10461000EDFD05460EE011480F49091F0968C1F379
:104620008811A0FB01700146224600233846FBF7A3
:10463000DDFD05460848001F0068C0F30140401C2E
:104640004600B5FBF6F902E0DFF8109000BF00BFAE
:104650004846BDE8F0870000083802400024F40016
:1046600000366E01F8B5044600260CB90120F8BDED
:10467000207800F00100002871D0F848006800F0B0
:104680000C0004280DD0F548006800F00C00082844
:1046900013D1F248001F006800F48000B0F5800FCD
:1046A0000BD1EE4808380068C0F34040002869D0BC
:1046B0006068002866D10120D9E700BF6068B0F5C6
:1046C000803F08D1E5480838006840F48030E3496D
:1046D000083908602EE0606868B9E048083800686A
:1046E00020F48030DD49083908600846006820F46D
:1046F000802008601EE06068B0F5A02F0DD1D7487B
:104700000838006840F48020D44908390860084619
:10471000006840F4803008600CE0D0480838006839
:1047200020F48030CD49083908600846006820F43C
:104730008020086000BF606890B1FDF711FF05465A
:1047400006E0FDF70DFF401B642801D903208EE72A
:10475000C24808380068C0F340400028F1D011E09A
:10476000FDF7FEFE054606E0FDF7FAFE401B642855
:1047700001D903207BE7B94808380068C0F34040FE
:104780000028F1D1207800F00200022869D1B34856
:10479000006800F00C0058B1B048006800F00C0050
:1047A00008281CD1AD48001F006800F48000B0B993
:1047B000AA4808380068C0F3400020B1E06801282A
:1047C00001D0012053E7A5480838006820F0F80020
:1047D000216940EAC100A1490839086041E0E06868
:1047E00028B39E480838006840F001009B4908390A
:1047F0000860FDF7B5FE054606E0FDF7B1FE401B7B
:10480000022801D9032032E7944808380068C0F331
:1048100040000028F1D091480838006820F0F800E6
:10482000216940EAC1008D490839086019E08B48C8
:104830000838006820F00100884908390860FDF751
:104840008FFE054606E0FDF78BFE401B022801D9CE
:1048500003200CE7814808380068C0F340000028B6
:10486000F1D1207800F00800082836D16069D0B175
:104870007A486C30006840F0010078496C3108607B
:10488000FDF76EFE054606E0FDF76AFE401B0228B6
:1048900001D90320EBE671486C300068C0F340009A
:1048A0000028F1D019E06D486C30006820F001005C
:1048B0006A496C310860FDF753FE054606E0FDF7D6
:1048C0004FFE401B022801D90320D0E663486C301C
:1048D0000068C0F340000028F1D1207800F0040007
:1048E000042874D15D483830006800F0805080B9E9
:1048F00000BF5A483830006840F08050574938317E
:1049000008600846006800F08050009000BF00BFBB
:1049100001265348006800F48070B0B95048006820
:1049200040F480704E490860FDF71AFE054606E027
:10493000FDF716FE401B642801D9032097E648487E
:10494000006800F480700028F2D000BFA068012841
:1049500008D142486830006840F001003F496831A2
:1049600008602DE0A06868B93C486830006820F015
:1049700001003A49683108600846006820F00400E8
:1049800008601DE0A06805280DD134486830006833
:1049900040F004003149683108600846006840F082
:1049A000010008600CE02D486830006820F001002C
:1049B0002A49683108600846006820F00400086051
:1049C00000BFA068A8B1FDF7CBFD054609E02EE0C9
:1049D000FDF7C6FD401B41F28831884201D9032012
:1049E00045E61E4868300068C0F340000028EFD05C
:1049F00013E0FDF7B5FD054608E0FDF7B1FD401BEE
:104A000041F28831884201D9032030E613486830EA
:104A10000068C0F340000028EFD1012E07D10F48F5
:104A20003830006820F080500C4938310860A069A7
:104A3000E8B30A48006800F00C00082866D0A069B6
:104A400002284BD105480838006820F080700349DF
:104A500008390860FDF784FD05460AE00838024081
:104A600000700040FDF77CFD401B022801D90320A7
:104A7000FDE528480068C0F340600028F2D1E069F5
:104A800040F00050216A0843616A40EA8111012226
:104A9000A06AC2EB500041EA00412C20005D41EACF
:104AA00000601C49091D0860081F006800E02FE035
:104AB00040F08070091F0860FDF752FD054606E0D2
:104AC000FDF74EFD401B022801D90320CFE5114818
:104AD0000068C0F340600028F2D019E00D4800687B
:104AE00020F080700B490860FDF73AFD054606E0AE
:104AF000FDF736FD401B022801D90320B7E5054824
:104B00000068C0F340600028F2D101E00120AEE56A
:104B10000020ACE50038024010B504460CB9012075
:104B200010BD607F20B900202077204600F04EF8AD
:104B30000220607700BFCA202168486253202168A4
:104B4000486200BF204602F0A4F940B100BFFF2038
:104B50002168486200BF042060770120E0E72068F8
:104B600080681949084021688860216960680843A5
:104B70006169084321688968084321688860216861
:104B8000E068086120680169208941EA00402168E5
:104B900008612068C06820F080002168C860206833
:104BA000C06C20F008002168C8642068C06CA1694E
:104BB00008432168C86400BFFF202168486200BF25
:104BC000012060770020ABE7BFFF8FFF054A016837
:104BD000914205D10449096841F40041024A11603B
:104BE00070470000002800407038024070B504464D
:104BF0000D460CB9012070BD94F82C0028B9002096
:104C000084F82D00204600F011F8022084F82C00D2
:104C1000211D2068FCF74CFA2946D4E90002FCF774
:104C20009BFA012084F82C000020E4E710B504462C
:104C3000FDF72AFA10BD70B504460D4694F82C0015
:104C4000022800D170BD022084F82C00294620687B
:104C5000FCF768FA012084F82C000020F2E770B518
:104C600004460D46164694F82C00022800D170BD6B
:104C7000022084F82C00324629462068FCF759FAB5
:104C80002868022803D1052084F82C0002E00120C6
:104C900084F82C000020EAE770B58AB004460D467F
:104CA0000026032084F83400606C032820D0B5F57A
:104CB000805F04D1A06B40F08050A0631CE0B5F58C
:104CC000006F07D1204603F00BF80646A06B304377
:104CD000A06311E03DB9204602F0CDFF0646A06B6F
:104CE0003043A06308E0A06B40F00060A06303E0E5
:104CF000A06B40F08050A063A06B40B140F2FF5029
:104D000021688863012084F834000AB070BD6068AF
:104D10000490A0680590E068069007956069089087
:104D2000A069099007A807C88DE80700206804A9B2
:104D30000EC902F033FD012084F834000020E4E7BE
:104D400010B504460CB9012010BD032084F83400CE
:104D5000204602F0F9FE204600F086F90020A0630C
:104D600084F8340000BFEFE7704730B503460022F7
:104D7000586E020E90090870C2F38300487002F06A
:104D800003008870586EC0F30742CA70B3F864001D
:104D9000C0F307220A7193F864204A71986E020EDC
:104DA0004FF6FF7000EA0210C880986EC0F3074209
:104DB000C88840EA1210C88002F00F00087268200C
:104DC000C05AC0F30722D0094872C2F3801088721B
:104DD000C2F34010C872C2F3001008730020487379
:104DE000586C00283ED19007000D08616820C25C15
:104DF000086940EA82000861D86E020E086940EA3C
:104E000092100861C2F3C200087502F007004875ED
:104E1000D86EC0F3074250098875C2F38200C87586
:104E20009007400F08766C20C05AC0F30722087E16
:104E300040EAD21008760869401C58650C7E586D0F
:104E4000A41C0125A540684358650C7A0120A040A8
:104E50009865D3E91504640A6043D8654FF400747B
:104E60001C6630E0586C012821D16820C25C900695
:104E7000800A0861D86E020E086940EA02200861C3
:104E8000D86EC0F307420869104308616C20C05A0D
:104E9000C0F307220869441C4FF48060A4FB00049F
:104EA0005865D8654FF400749C651C660BE040F2B1
:104EB000FF501C68A063986B40F0805098630120FD
:104EC00083F8340030BDC2F3801001F8190F90064A
:104ED000400E48706C20C25C487840EAD21048709E
:104EE00002F07F008870186F020ED009C870C2F3FC
:104EF00041100871C2F3820048719007000F887159
:104F0000186FC0F30742887940EA92108871C2F3A3
:104F10004010C8710020087202F001004872702031
:104F2000C05AC0F30722D0098872C2F38010C87239
:104F3000C2F340100873C2F300104873C2F381003B
:104F4000887302F00300C8737020C25C50080874B4
:104F50000120487419390020B4E70246506C0860FB
:104F6000906C4860D06C8860106DC860506D0861AE
:104F7000906D4861D06D8861106EC86100207047E7
:104F8000F8B5044604260025002000906946204616
:104F900002F058FE054615B1A06B2843A0630098A7
:104FA000C0F343263046F8BD10B504460CB90120C5
:104FB00010BD94F8340020B900202077204600F07E
:104FC00077F8032084F83400204600F008F8002029
:104FD000A0632063012084F834000020E8E730B5A6
:104FE00089B00446002500200390049005900690A7
:104FF00007907620089006A807C88DE8070020686B
:1050000003A90EC902F0CAFB2068406820F4807032
:1050100021684860206802F0DFFB2068406840F4A7
:105020008070216848600220FCF7C8FF204602F02B
:1050300092FD054645B1012084F83400A06B284359
:10504000A063012009B030BD204602F0FFFC0546F8
:105050003DB1012084F83400A06B2843A0630120F7
:10506000F0E70020EEE7000010B504460C49206888
:10507000884214D10B48006820F400600949086098
:105080004FF4F8510848FDF787F804210748FDF769
:1050900083F8E06BFCF771FD206CFCF76EFD10BD32
:1050A000002C01404438024000080240000C02403D
:1050B00010B586B00446142101A8FBF70FFA524937
:1050C000206888427DD100BF5048006840F40060ED
:1050D0004E4908600846006800F40060009000BF78
:1050E00000BF00BF49481438006840F00400474939
:1050F000143908600846006800F00400009000BF02
:1051000000BF00BF0846006840F00800086008467D
:10511000006800F00800009000BF00BF4FF4F85096
:1051200001900220029000200390032004900C20A4
:10513000059001A93648FDF7EFF804200190022000
:10514000029000200390032004900C20059001A9F8
:105150003048FDF7E1F83048304908604FF0006012
:10516000486000212D488160C1604FF48061016179
:1051700089004161890081612021C1614FF4403182
:10518000016204214162032181624FF40001C16286
:1051900089100163FCF74CFE08B1FBF7B9FE00BFB4
:1051A0001E48E063846300BF1B4848301C49086008
:1051B0004FF0006048604021194881600021C160C3
:1051C00000E01EE04FF480610161890041618900C7
:1051D00081612021C1614FF44031016204214162AB
:1051E000032181624FF40001C16289100163FCF761
:1051F0001FFE08B1FBF78CFE00BF094820648463E2
:1052000000BF06B010BD0000002C01404438024031
:1052100000080240000C024058640240980C002034
:10522000F80C00202DE9F04186B004468846164669
:105230001D460027B8F1000F07D1A06B40F00060B9
:10524000A063012006B0BDE8F08194F83400012885
:1052500076D10020A0637119E06D814205D9A06B61
:1052600040F00070A0630120ECE7032084F83400D4
:1052700000202168C8622068C06B40F495702168E6
:10528000C8633048E16BC8632F48E16BC8640020F5
:10529000E16B08656A029308226802F180014246C8
:1052A000E06BFCF73BFE2068C06A40F00800216814
:1052B000C862606C012800D076024FF0FF30009089
:1052C0006802019090200290022003900020049038
:1052D000012005906946206802F06AF84FF40071D9
:1052E000206801F0BDFE074657B140F2FF5021682B
:1052F0008863A06B3843A063012084F83400A1E7E1
:10530000012D07D9822020633146206801F014FF67
:10531000074606E0812020633146206801F029FF1E
:1053200007465FB140F2FF5021688863A06B3843A5
:10533000A063012084F8340084E701E0002081E7C5
:1053400002207FE7C97801086378010810B5044698
:10535000FBF7D0FB10BD00002DE9F04186B00446FC
:10536000884616461D460027B8F1000F07D1A06BEE
:1053700040F00060A063012006B0BDE8F08194F821
:105380003400012875D10020A0637119E06D8142BD
:1053900005D9A06B40F00070A0630120ECE703206A
:1053A00084F8340000202168C8622068C06B40F097
:1053B0001A002168C8633048216CC8632F48216CEB
:1053C000C8640020216C0865606C012800D076025A
:1053D0004FF40071206801F043FE074657B140F2D8
:1053E000FF5021688863A06B3843A063012084F8D4
:1053F0003400C1E7012D07D9A02020633146206881
:1054000001F09CFF074606E09020206331462068AB
:1054100001F0B1FF074657B140F2FF5021688863A1
:10542000A06B3843A063012084F83400A4E720680F
:10543000C06A40F008002168C86269028B082168D0
:1054400001F180024146206CFCF768FD4FF0FF300F
:105450000090680201909020029000200390049038
:10546000012005906946206801F0A2FF002083E733
:10547000FFE7022080E700000F7901086378010848
:10548000704770477047000030B502460B4600BFBA
:1054900092F83C00012801D1022030BD012082F8A1
:1054A0003C0000BF022082F83D001068416810688F
:1054B0008468114D1068A84203D0104D1068A842AE
:1054C00003D121F470015868014321F0700118687C
:1054D000014324F080049868044310684160106818
:1054E0008460012082F83D0000BF002082F83C006B
:1054F00000BF00BFD1E700000000014000040140F0
:1055000010B504460CB9012010BD94F83D0028B92F
:10551000002084F83C00204600F00CF8022084F8BB
:105520003D00211D206802F025FE012084F83D0089
:105530000020E9E738B504461F492068884216D1A3
:1055400000BF1E48006840F002001C490860084681
:10555000006800F00200009000BF00BF002205219B
:105560001D20FDF76BFC1D20FDF758FC23E01449BE
:10557000206888420DD100BF1048006840F020002C
:105580000E4908600846006800F02000009000BF47
:1055900011E00C49206888420DD100BF074800681F
:1055A00040F48070054908600846006800F4807087
:1055B000009000BF00BF38BD0004004040380240EA
:1055C000001400400020004001460868C06840F018
:1055D00001000B68D86008688068084B00EA030285
:1055E000062A08D0B2F5803F05D00868006840F070
:1055F00001000B68186000207047000007000100E0
:105600002DE9F04104460D4600BF94F83C00012806
:1056100002D10220BDE8F081012084F83C0000BFE7
:10562000022084F83D00206886683748064026F44A
:105630007F46206886602868502833D00CDC2028FC
:1056400050D004DC00284BD0102851D149E030283C
:1056500049D040284CD139E060282DD0702807D09F
:10566000B0F5805F03D0B0F5005F41D10DE040E0C0
:10567000D5E902136A68206802F0F9FD206886689F
:1056800046F077062068866033E0D5E902136A6841
:10569000206802F0ECFD2068806840F480402168BA
:1056A000886026E0EA686968206802F02BFF5021D4
:1056B000206802F0E7FD1CE0EA686968206802F0F3
:1056C00034FF6021206802F0DDFD12E0EA686968BD
:1056D000206802F017FF4021206802F0D3FD08E0A7
:1056E00000BF00BF00BF2968206802F0CBFD00E0CA
:1056F00000BF00BF012084F83D0000BF002084F8F7
:105700003C0000BF00BF85E788FFFEFF704710B573
:10571000044620680069C0F34000D8B12068C06822
:10572000C0F34000B0B16FF00200216808610120B1
:1057300020772068806900F0030018B12046FFF749
:10574000E5FF05E0204600F00FF9204600F0FAF9E9
:105750000020207720680069C0F38000D8B120685D
:10576000C068C0F38000B0B16FF004002168086128
:10577000022020772068806900F4407018B120462C
:10578000FFF7C4FF05E0204600F0EEF8204600F0E9
:10579000D9F90020207720680069C0F3C000D8B193
:1057A0002068C068C0F3C000B0B16FF00800216885
:1057B0000861042020772068C06900F0030018B158
:1057C0002046FFF7A3FF05E0204600F0CDF8204675
:1057D00000F0B8F90020207720680069C0F30010BD
:1057E000D8B12068C068C0F30010B0B16FF01000ED
:1057F00021680861082020772068C06900F44070A3
:1058000018B12046FFF782FF05E0204600F0ACF813
:10581000204600F097F9002020772068006900F00A
:10582000010058B12068C06800F0010030B16FF08D
:10583000010021680861204600F0B8F9206800697D
