:020000040800F2
:100000007819032001010108858601082775010878
:1000100081860108B512010891C90108000000009D
:100020000000000000000000000000003D0001088A
:10003000FF1501080000000099000108ED9B010870
:100040001B0101085B8901081B0101081B01010854
:100050001B0101081B0101081B0101081B0101080C
:100060001B0101081B0101081B0101081B010108FC
:100070001B0101081B0101081B0101081B010108EC
:100080001B0101081B0101081B0101081B010108DC
:100090001B0101081B0101081B0101081B010108CC
:1000A0001B0101081B0101081B0101081B010108BC
:1000B0001B010108AD9D01081B0101081B0101087E
:1000C0001B0101082D7501081B0101081B01010816
:1000D0001B0101089DA70108ADA701081B0101082C
:1000E0001B0101081B0101081B0101081B0101087C
:1000F0001B0101081B0101081B0101081B0101086C
:100100001B0101081B0101081B0101081B0101085B
:100110001B0101081B010108BD9D01081B0101080D
:100120001B0101081B0101081B010108D51401086E
:100130001B0101081B0101081B0101081B0101082B
:100140001B0101081B0101081B0101088986010828
:100150001B010108E51401081B010108BDA70108E6
:100160001B0101081B0101081B0101081B010108FB
:100170001B0101081B0101081B0101080000000010
:100180001B0101081B010108E5A101081B01010871
:100190001B0101081B0101081B0101081B010108CB
:1001A000157A01081B010108DD1301081B01010874
:1001B0001B0101081B0101081B0101081B010108AB
:1001C0001B0101081B01010800F002F80FF027FFD6
:1001D0000AA090E8000C82448344AAF10107DA45A2
:1001E00001D10FF01CFFAFF2090EBAE80F0013F0B7
:1001F000010F18BFFB1A43F00103184780000000ED
:10020000A00000000A444FF0000C10F8013B13F06E
:10021000070408BF10F8014B1D1108BF10F8015B5F
:10022000641E05D010F8016B641E01F8016BF9D152
:1002300013F0080F1EBF10F8014BAD1C0C1B09D1A9
:100240006D1E58BF01F801CBFAD505E014F8016B1B
:1002500001F8016B6D1EF9D59142D6D370470000AD
:100260000023002400250026103A28BF78C1FBD8BF
:10027000520728BF30C148BF0B607047CC0C030841
:10028000000400207404000004020008E80D0308C4
:0C02900074080020041103006002000844
:020000040800F2
:108000000000000000000000000000000000000070
:108010000000000000000000000000000000000060
:020000040801F1
:100000001FB51DF0BDFA9DE8030000F0C9FA00F02D
:100010008FFA1FBD10B5002000F0F8FA10BD00F0F7
:10002000B3FB1146FFF7ECFF19F04AF800F0D1FBE3
:1000300003B4FFF7EFFF03BC00F08CFA2D4B1968F7
:100040000868B0E8F04F80F30988BFF36F8F4FF076
:10005000000080F311887047000000000848006825
:10006000006880F308884FF0000080F3148862B6BF
:1000700061B6BFF34F8FBFF36F8F00DF00BF00BFCC
:1000800008ED00E0DFF80C00016841F47001016048
:10009000704700BF88ED00E0EFF30980BFF36F8F7A
:1000A000144B1A681EF0100F08BF20ED108A20E9CB
:1000B000F04F106009B44FF0500072B680F3118811
:1000C000BFF34F8FBFF36F8F62B61AF0CFFF4FF0C1
:1000D000000080F3118809BC19680868B0E8F04F87
:1000E0001EF0100F08BFB0EC108A80F30988BFF330
:1000F0006F8F7047F4040020EFF305807047000015
:100100000948804709480047FEE7FEE7FEE7FEE7AB
:10011000FEE7FEE7FEE7FEE7FEE7FEE704480549E7
:10012000054A064B70470000499D0108C9010008B7
:1001300078E902207819032078F9022078F9022062
:1001400070B5064600F00CFA056806F10B0020F0C9
:100150000704B4429CBF002070BD2B466A68BAB148
:100160001068A04210D304F1080188423CBF5068D7
:10017000586007D35168101941601168091B01606C
:1001800058601460101D70BD13465268002AE7D1F4
:100190002146284600F0F0F90028DED170BD70B588
:1001A0000446051F00F0DCF90068002C14BF446809
:1001B00070BD002C18BFAC423CBF20466468F8D329
:1001C00001680A18AA4218BF456003D12A6805468B
:1001D0001144016028684119A1421CBF6C6070BDC8
:1001E0006168696021680844286070BD53EA020CA8
:1001F00000F069802DE9F04B4FF00006002B1FBF87
:10020000B3FA83F503FA05F424FA05F65E4012BF4B
:100210001643B2FA82F502FA05F4C5F120051EBFB5
:1002200022FA05FC44EA0C04203556EA044C4FEA55
:10023000144418BF641C4FF000084FF000099042AE
:1002400071EB030C39D3002919BFB1FA81F701FA18
:1002500007F6B0FA80F700FA07F6C7F120071EBFCD
:1002600020FA07FC46EA0C062037B6FBF4FCA7EBA5
:100270000507103F07F01F0BCBF120060CFA0BFB14
:100280002CFA06F644BFB3460026202FA4BF5E46D4
:100290004FF0000B5BEA060C08BF4FF0010B19EBA7
:1002A0000B09ABFB027C48EB0608C01B06FB02CC2B
:1002B0000BFB03CC71EB0C01C1E70B460246414638
:1002C0004846BDE8F08B13B54FF000004FF0000139
:1002D000AFF30080BDE81C40704710B5002000F06F
:1002E000B6F9FFF797FEBDE81040012000F032B9E3
:1002F0002DE9F041074615460E461020FFF720FF76
:1003000004000AD06760C4E9026500F02DF90168B5
:10031000216004600020BDE8F0810120FBE70000BF
:100320000EB5054614460E4613A000F09EF9284669
:1003300000F09BF916A000F098F9304600F095F90E
:1003400015A000F092F900218DF80B100A210DF193
:100350000A008DF80A1008E094FBF1F201FB12424A
:1003600094FBF1F4303200F8012D002CF4DC00F0A5
:100370007CF9FFF7B2FF00002A2A2A206173736517
:100380007274696F6E206661696C65643A20000062
:100390002C2066696C6520002C206C696E6520003D
:1003A00010B5431C02E010F8011B71B18107FAD1AE
:1003B0004FF0013202C88C1A8C4314EAC211F9D0F2
:1003C000C01A0A0603D0C01E10BDC01A10BD0A0410
:1003D00001D0801E10BD0902FCD0401E10BD032AB2
:1003E00040F2308010F0030C00F0158011F8013B52
:1003F000BCF1020F624498BF11F801CB00F8013B39
:1004000038BF11F8013BA2F1040298BF00F801CBFC
:1004100038BF00F8013B11F0030300F02580083AD3
:10042000C0F0088051F8043B083A51F804CBA0E82A
:100430000810F5E7121D5CBF51F8043B40F8043B7F
:10044000AFF30080D20724BF11F8013B11F801CBB4
:1004500048BF11F8012B24BF00F8013B00F801CB85
:1004600048BF00F8012B704710B5203AC0F00B8050
:10047000B1E81850203AA0E81850B1E81850A0E8A8
:100480001850BFF4F5AF5FEA027C24BFB1E8185002
:10049000A0E8185044BF18C918C0BDE810405FEA72
:1004A000827C24BF51F8043B40F8043B08BF7047EE
:1004B000D20728BF31F8023B48BF11F8012B28BFF3
:1004C00020F8023B48BF00F8012B704702F0FF0301
:1004D00043EA032242EA024200F0D3B84FF000029E
:1004E00000B5134694469646203922BFA0E80C502A
:1004F000A0E80C50B1F12001BFF4F7AF090728BF05
:10050000A0E80C5048BF0CC05DF804EB890028BF80
:1005100040F8042B08BF704748BF20F8022B11F0A9
:10052000804F18BF00F8012B704770477047704725
:1005300070B5064C7C44064D7D4403E020682044A1
:100540008047241DAC42F9D170BD00008407020031
:100550009007020001491820ABBEFEE7260002000A
:10056000004870479CB2022000487047CCB202207D
:10057000704770477047704738B504460A460020F8
:100580006946AFF30080002808BF38BD02460099D5
:10059000204600F0A2F8012038BD012000F0D4B8B8
:1005A000F8B5AFF30080054600200C46102000BFD0
:1005B0000646A819A0420DD9324669460020AFF37D
:1005C0000080070008BF00F0BFF80098A04218BFE5
:1005D0000546C419FFF7C4FF05600746F01D20F06B
:1005E00007004619284600F00AF8B44208BFF8BDD3
:1005F000A21B31463868BDE8F84000F06EB8002113
:100600000160C0E901107047102070472DE9F041EA
:100610000646FFF7A9FF8046454613E016B1E0689D
:10062000B0420ED120682860D4E90101D8F80070EA
:1006300088472046FFF7B3FDD8F80000B842EBD159
:1006400000E025462C68002CE8D1BDE8F08110B50B
:1006500000F062F8BDE8104000F059B810B500F0A5
:100660007BF8BDE8104000F052B810B5044602E037
:10067000641C00F026F820780028F9D110BD4FF056
:1006800000020429C0F0128010F0030C3FF428AFE0
:10069000CCF1040CBCF1020F18BF00F8012BA8BF6D
:1006A00020F8022BA1EB0C01FFF71ABF5FEAC17C17
:1006B00024BF00F8012B00F8012B48BF00F8012BE4
:1006C000704708B569468DF800000320ABBE08BD31
:1006D0000048704794B202207047034640688C4639
:1006E000002818BF88423CBF03464068F8D318680A
:1006F0001844884207D00CF1030020F00700001DC9
:10070000411A521A0146081D0A60FFF748BD002829
:1007100001D0FFF71FBF704710B5002102A000F005
:1007200061F8012010BD0000534947414252543A3C
:100730002041626E6F726D616C207465726D696EBE
:100740006174696F6E00000010B500F065F8BDE8D7
:100750001040FFF7DCBF000010B5002102A000F040
:1007600041F8012010BD00005349475056464E3A0B
:100770002050757265207669727475616C20666EA2
:100780002063616C6C6564007546FFF7A1FFAE469F
:1007900005006946534620F00700854618B020B58D
:1007A000FFF7BCFCBDE820404FF000064FF000070B
:1007B0004FF000084FF0000B21F00701AC46ACE809
:1007C000C009ACE8C009ACE8C009ACE8C0098D4676
:1007D000704710B50446AFF300802046BDE81040D6
:1007E000FFF726BC70B505460C460A2000E06D1CDC
:1007F000FFF767FF35B128780028F8D102E0641CC4
:10080000FFF75FFF14B120780028F8D1BDE87040F1
:100810000A20FFF756BF000010B5012805D00021BF
:1008200003A0FFF7DFFF012010BD09A1F8E70000DA
:1008300053494752544D454D3A204F7574206F66C9
:100840002068656170206D656D6F72790000000031
:100850003A2048656170206D656D6F727920636F15
:1008600072727570746564005849096821F44031EA
:10087000574AC2F804131146D1F8041342681143D1
:10088000524A11600168496821F480710268516020
:1008900001684A68016942EA012102685160016801
:1008A000496821F0407102685160016849688268B6
:1008B0001143026851600168896821F4006102688F
:1008C000916001688968C268114302689160414A79
:1008D000816A914218D00168896821F070610268CC
:1008E000916001688968826A1143026891600168B9
:1008F000896821F040510268916001688968C26A84
:100900001143026891600BE00168896821F0706111
:10091000026891600168896821F040510268916025
:100920000168896821F002010268916001688A68A3
:10093000816942EA4101026891602021095CA1B10C
:100940000168496841F400610268516001684968C2
:1009500021F460410268516001684A68416A491E99
:1009600042EA41310268516005E00168496821F4BA
:100970000061026851600168C96A21F4700102686F
:10098000D1620168CA6A818B491E42EA015102683C
:10099000D1620168896821F4007102689160016880
:1009A0008A6890F8301042EA41210268916001683B
:1009B000896821F480610268916001688A684169F0
:1009C00042EA8121026891607047000004230140DF
:1009D000002001400100000F70B505460C460121C2
:1009E000284601F035FA084801F0A2F940F2012149
:1009F000884206D11CB1044801F09DF92060012015
:100A000070BD0020FCE70000CC0A002070B5054650
:100A10000C46064804600120044948608860284666
:100A200001F0ACF8284601F075FA70BD2CB2022036
:100A300010B50CF05BFA00F03BFB10BD10B500F0F8
:100A400097FA054908700021044806F0EFFA0821DA
:100A5000034800F0AFFB10BD4D040020200F002024
:100A6000A00E002010B501242102034802F0D6FB9D
:100A700000B10024204610BD0004024010B5044619
:100A80002146024805F0DBFC10BD00001C0D0020D3
:100A900010B5044805F0E6FC042801D0012010BD83
:100AA0000020FCE71C0D002010B5002400F040F8E9
:100AB000012801D0022010BD064805F0E7FC0446DD
:100AC00034B94FF40061034805F058FB00B101242C
:100AD0002046F0E71C0D002070B5002514260024E8
:100AE00013E000F0BBFB054605B910E0022D01D173
:100AF000022070BD00F09AFB0B480068401C0A49B8
:100B00000860502002F02AF8641C142CE9DB00BFB6
:100B100006480068844201D904480460142C01DBB3
:100B20000120E6E70020E4E73C0400203804002030
:100B300008B501200090FFF795FF08B9002000904C
:100B40009DF8000008BD00002DE9F04104460D4667
:100B50001646002733462A462146044805F0D4FDB0
:100B600000B101273846BDE8F08100001C0D0020CF
:100B700010B5002201210248006818F069FC10BD80
:100B8000440400202DE9F04104460D461646002796
:100B900033462A462146044805F050FE00B101279D
:100BA0003846BDE8F08100001C0D002010B5822001
:100BB0002D49087004202D4908702D480078002820
:100BC00042D12C4841688220884740F61101884272
:100BD00038D1284828490860084600682749C26873
:100BE00021480078904706F07DFE48BB20228221F4
:100BF0002348006806F0A4FE00F07A001F494978F7
:100C000001F07A01884219D1412282211C480068F2
:100C100006F096FE1949C97888420FD140228221F8
:100C20001748006806F08CFE00F0010013490979AE
:100C300001F00101884201D1002010BD0120FCE734
:100C40000120FAE70320F8E709480078012809D1D4
:100C500019F052FE044606F045FE08B92046ECE7BE
:100C60000120EAE70420E8E7E5060020E40600208A
:100C7000E6060020A4060020DC0600203CB202208C
:100C8000A00600202DE9FF4705460026AA48007867
:100C9000401CA9490870084600781E2826DD00205F
:100CA0000870A648007840B940228221A448006814
:100CB00006F046FE00F0010048B1A0480078012887
:100CC00014D119F0F1FD00F0800080280ED09D486D
:100CD0000088401C9B49088005E0FFF767FF00B9CA
:100CE00003E0701CC6B2052EF7DB00BF042E06DD44
:100CF00095480088401C9449088003F041FB06F0A9
:100D0000F1FD28B191480078401C9049087007E037
:100D10008E48007820B18D480078401E8B490870BD
:100D20008A480078042806D189480088401C8849F0
:100D3000088003F025FB00278048007838B98548F3
:100D400000680169844800788847287006E07B487D
:100D50000078012802D119F0A5FC28702878002815
:100D600070D00024DFE07548007860B9684600EB79
:100D7000440201A800EB44017648006843697648C4
:100D8000007898470BE06D480078012807D16A4643
:100D900002EB440101AA02EB440019F04BFD6F483D
:100DA000007801280AD101A830F8140003A921F81D
:100DB00014003DF8140002A921F8140067480078D7
:100DC00000F0020060B101A830F81400C0F58050B6
:100DD00003A921F814003DF8140002A921F8140019
:100DE0005E48007800F0040060B101A830F81400FB
:100DF00003A921F814003DF81400C0F5805002A9A1
:100E000021F814005548007800F0080050B101A8FE
:100E100030F8140002A921F814003DF8140003A9C9
:100E200021F8140003A830F814004D4951F824109B
:100E3000884208D903A830F81400494951F8241011
:100E4000401A07E073E0464850F8240003A931F83F
:100E50001410401A1FFA80F802A830F81400414913
:100E600051F82410884207D902A830F814003D49EF
:100E700051F82410401A06E03A4850F8240002A91C
:100E800031F81410401A1FFA80F908EB0900052800
:100E90000BDD03A830F81400314941F8240002A802
:100EA00030F814002F4941F824002B48007882289C
:100EB0000CD103A830F81410A81C20F8141002A8B4
:100EC00030F81410281D20F8141015E0244850F8AC
:100ED0002400254909884843C0F30F31A81C20F895
:100EE0001410204850F82400204909884843C0F3D2
:100EF0000F31281D20F8141003A830F814001A49E7
:100F000009884843C0F30F31A81C20F8141002A828
:100F100030F81400154909884843C0F30F31281DE3
:100F200020F81410641C2878A0423FF61CAF384605
:100F300004B0BDE8F0870000F8060020E6060020B7
:100F4000A0060020F0060020EE060020F906002092
:100F5000EC060020DC060020E5060020E406002068
:100F6000FC06002000070020E0060020E20600202A
:100F70001CB500240020019000905CE03948006816
:100F800009F014F90A2006F0A7FC3648006809F0B9
:100F90001BF9052006F0A0FC06F0A4FC32480078FE
:100FA00030B93248822102682E48006890470BE031
:100FB0002D480078012804D12A48006819F014FC53
:100FC00002E0012420461CBD06F08CFC04467CBBDC
:100FD0000020019027E000BF4AF6AA2024490860BB
:100FE00000BFFFF7E3FD044674B922480088BDF84E
:100FF000041008441F4908801F48008800990844CD
:101000001D4908800020DEE7012C05D1BDF8040051
:10101000401C80B2019003E00098401C009006E064
:10102000022001F09BFDBDF804000328D3DB00BFC4
:101030000098401C0090009864289FDB009863286B
:1010400000DD03240B480088BDF80410084409495A
:10105000088009480088009908440749088020460C
:10106000B1E70000E8060020E6060020A406002004
:1010700000300040F4060020F606002010B50446BB
:101080000448028004480380044801700448046056
:10109000002010BDE0060020E2060020E606002049
:1010A000E80600200220014908707047D0060020A1
:1010B00010B53848007898B136480078022805D134
:1010C000072008F0D5FC012033490870314800782A
:1010D000002844DD2F480078401E2E4908703EE06D
:1010E0002E48007818B101202B49087037E02C48B1
:1010F000007870B32B48007800F03F0028B9052035
:1011000008F0B6FC0120244908702648007800F059
:101110003F000F2802D100201F49087021480078A5
:1011200000F03F00102805D1012008F0A1FC0120AB
:10113000194908701B48007800F03F001F2802D1B1
:1011400000201549087017480088401C1549088080
:1011500005E0FFE700201049087012490880124896
:1011600000780D49097888420FD00B48007830B1DB
:1011700008210E4805F05AFF0D49087005E00821C6
:101180000A4805F085FF0A490870034800780649B7
:10119000087010BDD0060020D7060020D50600201C
:1011A000D4060020D2060020D8060020A00E002081
:1011B000D606002030B58BB004460D461848206096
:1011C00018480068400800EE100AB8EE400ABCEE6D
:1011D000C00A10EE100A1449B0FBF1F06060002163
:1011E000A160E121E16000212161204605F0E9FED6
:1011F000002008900A9008A9204605F0B7FB60205F
:101200000190702002900020039005902A4601A9C9
:10121000204605F01CFE204605F0C8FD0BB030BD91
:10122000000C0040E804002040420F0010B50420EC
:1012300001F094FC01225103064802F000F8064830
:1012400004F0F0FF042001F089FC16F049F90020B9
:1012500010BD0000000802401C0D002010B5002247
:101260004FF40051104801F0EAFF042001F076FC31
:101270000E48FFF795F840B90C490D4800F0C1F948
:10128000FFF756FC70B9022010BDFFF751FC08B9FA
:101290000220F9E7FFF708FC08B10120F4E700207D
:1012A00008F090FB0020EFE700080240490400200E
:1012B00014D6020800BFFEE70346042B15D007DC56
:1012C0007BB1012B0ED0022B0DD0032B12D10BE0E2
:1012D000202B0BD0212B0AD0222B09D0232B09D174
:1012E00007E008E007E006E005E004E003E002E0D4
:1012F00001E000E000BF00BF002070470020704701
:1013000010B500220449054809F0A8FB0449034828
:1013100009F09DFB002010BDEC4B00201C3F00207D
:10132000EC43002070B504460D462146034809F001
:101330008EFB024809F066FB002070BD1C3F0020B8
:1013400010B503460C460021084610BD1D4A30B5B5
:10135000136823F0010313601B4A1368C3F30B14D3
:101360000123A4F54065243D06D01268C2F30B1298
:10137000A2F54064273C10D1144A12686AB9144A95
:1013800014684FF08A45B5EB045F11D01268C2F3C0
:101390000B02A2F58064833C0AD00E4A93609368E6
:1013A000002BFCD110601068884209D0002030BDAD
:1013B000094A13601368002BFCD1074A083AF1E789
:1013C000012030BD002000E000ED00E0002004E03E
:1013D0000010005C00300240084C025810B5024872
:1013E00001F040F810BD0000380B00202DE9F04757
:1013F0000C4617469C46DDF82080D0F80090D9F8BE
:10140000449009F0404948EA0C4A49EA0A09D0F8F0
:1014100000A0CAF84490D0F80090C9F83C70D0F809
:101420000490B9F5403F4ED104F07F4604F47F01AB
:1014300004F47F42E3B2D0F80890B9F1000F06D16E
:1014400042EA010949EA060949EA030536E0D0F80B
:101450000890B9F1010F04D142EA010949EA0305F4
:101460002CE0D0F80890B9F1020F09D1C90C920A0A
:10147000DB084FEA421949EAC12949EA03051DE0A0
:10148000D0F80890B9F1030F0CD1F60FC90CD20AAD
:10149000DB084FEA421949EA812949EAC63949EA93
:1014A00003050BE0360F090D120B1B094FEA021959
:1014B00049EA012949EA063949EA0305D0F80090CA
:1014C000C9F8385003E0D0F80090C9F80C40BDE8E6
:1014D000F087000010B5024801F05AF910BD000075
:1014E000A00D002010B5024801F052F910BD000017
:1014F000000E00200146087810381823B0FBF3F2E4
:101500000848805CC865032A05D908686FF309009C
:10151000001D886503E008686FF309008865886D21
:101520007047000048D60208014600208A6A8B698D
:10153000CBB932B1012A0DD0022A03D0032A10D12F
:101540000EE000BFCB6A03F08073B3F1807F00D15F
:10155000012007E0CB6AB3F1C07F00D1012001E098
:1015600000E000BF34E08B69B3F5005F1AD132B1FF
:10157000012A07D0022A03D0032A11D10AE000BFB2
:1015800001200EE0CB6A03F08073B3F1807F00D1BD
:10159000012006E0CB6AB3F1C07F00D1012000E05A
:1015A00000BF15E032B1012A05D0022A04D0032A77
:1015B0000CD103E000BF00BF012008E0CB6A03F0BC
:1015C0008073B3F1807F00D1012000E000BF00BF35
:1015D000704730B50468246824F4802405682C60C2
:1015E000046863608468402C04D10468A2600468C5
:1015F000E16003E00468A1600468E26030BD704708
:10160000704730B504460D4600222946204600F0BA
:1016100001F830BDF0B50346012500241148407A99
:1016200001281CDA00200F4E767A0E4FB855384646
:10163000467A001D40F82630001F467A0830825551
:101640003E46707A461C7E72044604F130000870F3
:101650003A2048702F2088700020C8700025284646
:10166000F0BD00002C58002010B504460021204693
:1016700000F002F810BD000030B502460B46002114
:1016800001200D4C647A012C14DB1478303CE1B25B
:10169000094C241D54F8214064B10025064C241D3A
:1016A00044F82150241D6554083C647A641E024DA0
:1016B0006C72002030BD00002C5800202DE9F04154
:1016C000022023490968087021480668012572B67E
:1016D00001F036FB71201F4908601F491F4801F0C7
:1016E0005BFA20B101F0ACFA0020BDE8F0814FF4C4
:1016F00000411B4807F054F900240DE03759184801
:1017000021183A460023022001F0C8FA08B9012046
:1017100000E000200540241D202CEFD30DE0375DB4
:101720000F4821183A460023184601F0B7FA08B9C5
:10173000012000E000200540641C202CEFD301F0C4
:101740007FFA62B60DB10120CFE70020CDE700009F
:10175000200400200C3C024034040020240400201B
:101760000080000810B52022034904480068FEF7F5
:1017700036FE0248006810BD0080000820040020EA
:1017800003480078022801D1012070470020FCE7BF
:101790000080000810B5002201B909E0012901D13B
:1017A0000A0205E0022901D10A0201E04FF4407269
:1017B000124B1B6823F44073104C236023461B68B4
:1017C0001343236023461B6823F0F803236023465A
:1017D0001B68022444EAC0042343084C23602346C8
:1017E0001B6843F48033236000BF00BF00BFBFF31A
:1017F0004F8F00BF00BF00BF10BD0000103C024073
:101800000E49096821F440710C4A116011460968BB
:1018100041F004011160114609684FF4803242EA38
:1018200000221143054A116000BF00BF00BFBFF393
:101830004F8F00BF00BF00BF70470000103C024048
:101840000B4A126822F44072094B1A601A46126859
:101850001A601A46126842F001021A60017000BF55
:1018600000BF00BFBFF34F8F00BF00BF00BF704776
:10187000103C024010B50D49096821F440710B4C31
:1018800021602146096841F44071216021460968C0
:1018900041F0010121600260436000BF00BF00BF52
:1018A000BFF34F8F00BF00BF00BF10BD103C024010
:1018B0000C4A126822F440720A4B1A601A461268E7
:1018C00042F480721A601A46126842F001021A60ED
:1018D000018000BF00BF00BFBFF34F8F00BF00BF3C
:1018E00000BF7047103C02400C4A126822F440725C
:1018F0000A4B1A601A46126842F400721A601A46BD
:10190000126842F001021A60016000BF00BF00BF10
:10191000BFF34F8F00BF00BF00BF7047103C0240B5
:101920001D48006800F0020028B11C48806940F0A2
:1019300020001A4988611848006800F0100028B19A
:101940001648806940F01000144988611248006808
:1019500000F0200028B11148806940F008000F49CC
:1019600088610D48006800F0400028B10B4880698C
:1019700040F00400094988610748006800F08000D1
:1019800028B10648806940F0020004498861F220CD
:1019900001490860704700000C3C0240F0570020ED
:1019A00070B50446002500201449886101F04EFC02
:1019B000054609E0601C38B124B101F047FC401B2A
:1019C000A04201D9032070BD0D48006800F48030AA
:1019D0000028EFD10A48006800F0F20018B1FFF7C4
:1019E0009FFF0120EFE70648006800F0010010B1FA
:1019F0000120034908600020E5E70000F0570020BF
:101A00000C3C024030B5024600230024086801283F
:101A100016D013686FF30E03D1E901052843CD6892
:101A200028430D6928434D6928438D692843CD69B2
:101A300028430D6A28434D6A28430343136019E085
:101A4000136823F4F843D1E9070528434D6A284376
:101A5000034354686FF30E04D1E901052843CD68B0
:101A600028430D6928434D6928438D692843044361
:101A700013605460002030BD0246506940EA4100C6
:101A800050610020704718B5034600200090D1E94E
:101A9000000420438C68641E40EA4410CC6840EA8D
:101AA0004420009000981861002018BD70B50346CE
:101AB000154600220024012D1FD09A6802F07042C2
:101AC0000868401E4E68761E40EA06168868401E6A
:101AD00046EA0026C868401E46EA0036088A401ECC
:101AE00046EA0046888A401E46EA0056087E401EA6
:101AF00046EA006002439A6022E09A681148024078
:101B0000C868401E0603888A401E46EA0050024309
:101B1000DC6804F070440868401E4E68761E40EA97
:101B200006168868401E46EA0026088A401E46EAD5
:101B30000046087E401E46EA006004439A60DC606E
:101B4000002070BDFF0F0FFF70B50A480468001D2C
:101B50000568001D0668344454B108220649204631
:101B600005F038FF042204491031284605F032FF01
:101B700070BD000020F4F01FAE04002018B502462E
:101B80000020009000BF92F83C00012801D1022003
:101B900018BD012082F83C0000BF0868092822D93E
:101BA0001068C0680B780A3B03EB43040723A3408B
:101BB00098431368D860594B0868984207D1106859
:101BC000C0680B7A40EA03601368D8601FE00B78A6
:101BD0000A3B03EB4303886898401368DB681843AB
:101BE0001368D86013E0106800690B7803EB4304B6
:101BF0000723A3409843136818610B7803EB430352
:101C00008868984013681B6918431368186148680E
:101C1000072817D21068406B0B795B1E03EB830417
:101C20001F23A340984313685863088880B20B7938
:101C30005B1E03EB8303984013685B6B18431368C8
:101C4000586331E048680D2817D21068006B0B7993
:101C5000DB1F03EB83041F23A3409843136818631F
:101C6000088880B20B79DB1F03EB8303984013686D
:101C70001B6B18431368186316E01068C06A0B7971
:101C80000D3B03EB83041F23A34098431368D862E2
:101C9000088880B20B790D3B03EB830398401368EF
:101CA000DB6A18431368D8621D4B1068984208D14C
:101CB0000868122805D11B48006840F48000C3F86A
:101CC0000403174B1068984220D1144B08689842BF
:101CD00002D00868112819D11248006840F40000A9
:101CE000104B18600D4B086898420FD10E480068E1
:101CF0000E4BB0FBF3F000EB80004000009002E0E0
:101D00000098401E009000980028F9D100BF0020E4
:101D100082F83C0000BF00BF3AE70000120000104C
:101D20000020014004230140E804002040420F004D
:101D30000146086C704701460868C06C7047000097
:101D400070B5044600250CB9012070BD1549A06A84
:101D5000884200D000BF206C30B9204600F024F843
:101D60000020606484F83C00206C00F0100088B90A
:101D7000206C20F4885040F0020020642046FEF7DA
:101D800073FD00206064206C20F0020040F0010030
:101D9000206400E0012500BF002084F83C0000BF63
:101DA0002846D2E70100000F10B586B00446142182
:101DB00001A8FEF793FB2249206888423DD100BF6D
:101DC0002048006840F480601E49086008460068AA
:101DD00000F48060009000BF00BF00BF19481438B5
:101DE000006840F020001749143908600846006870
:101DF00000F02000009000BF00BF00BF0846006850
:101E000040F0040008600846006800F004000090FC
:101E100000BF00BF0815019003200290002003902E
:101E200001A9094801F0EEF803200190029000207A
:101E3000039001A9054801F0E5F806B010BD0000C7
:101E400000220140443802400014024000080240D1
:101E500070B504460D4600262068806800F4806056
:101E6000B0F5806F11D12068806800F48070B0F503
:101E7000807F0AD1206C40F02000206400BF002049
:101E800084F83C0000BF012070BD01F0DFF9064678
:101E900012E0681C80B125B101F0D8F9801BA8427E
:101EA0000AD9206C40F00400206400BF002084F8B0
:101EB0003C0000BF0320E7E72068006800F0020054
:101EC0000228E6D16FF0120021680860206C40F40F
:101ED000007020642068806800F04050B8B9A069A4
:101EE000A8B92068C06A00F4700020B1206880683A
:101EF00000F4806058B9206C20F480702064206C5D
:101F000000F4805018B9206C40F0010020640020DB
:101F1000BAE7000008B501460020009000BF91F824
:101F20003C00012801D1022008BD012081F83C00BD
:101F300000BF0868806800F00100A0B908688068E8
:101F400040F001000A68906039480068394AB0FBE7
:101F5000F2F000EB4000009002E00098401E00907C
:101F600000980028F9D10868806800F00100002876
:101F70005BD0086C40F20162904340F480700864CA
:101F80000868406800F4806028B1086C20F40050B4
:101F900040F480500864086C00F48050B0F5805F15
:101FA00004D1486C20F00600486401E00020486439
:101FB00000BF002081F83C0000BF6FF022000A68DB
:101FC00010601D48006800F01F0058B9086880685C
:101FD00000F0405048BB0868806840F080400A68C4
:101FE000906022E0154A086890420AD1086880682B
:101FF00000F0405028B90868806840F080400A68C6
:1020000090600D48006800F0100070B90C4A086834
:1020100090420AD10868806800F0405028B90868EA
:10202000806840F080400A68906000207CE70000F3
:10203000E804002040420F0004230140002001403A
:1020400000220140014600BF91F83C00012801D167
:1020500002207047012081F83C0000BF08688068BA
:1020600020F001000A6890600868806800F00100B4
:1020700028B9086C20F4885040F00100086400BFC3
:10208000002081F83C0000BF00BFE2E770B50346C6
:102090000C4600201F2100BF0D1EA1F1010106D03A
:1020A00001F01F060125B5402540002DF4D08AB16E
:1020B000082A0BD0102A05D0182A0CD1072900D3E2
:1020C00001200AE0082900D3012006E0102900D3EE
:1020D000012002E001E0012000BF00BF40B91D68FF
:1020E0006C611D68AD6825F0180515431E68B56064
:1020F00070BD000010B504460CB9012010BD607F12
:1021000020B900202077204600F036F802206077C2
:10211000207948B91748216848612068806820F014
:1021200018002168886007E02046D4E90212FFF712
:10213000ADFF08B10120E1E7607920B94FF0FF3031
:102140002168086102E021682069086120688068D0
:1021500020F0600061690843216888602068806819
:1021600020F08000A1690843216888600120607721
:102170000020C3E7B71DC10408B5094A01689142B0
:102180000DD100BF0749096841F48051054A11602B
:102190001146096801F48051009100BF00BF08BDDD
:1021A000003002403038024070B5044620680068B4
:1021B00020F00500001D2168086001F047F8054681
:1021C00013E001F043F8401BB0F57A7F0DD9E06BC6
:1021D00040F02000E063032084F8390000BF0020B5
:1021E00084F8380000BF032070BD2068006800F04C
:1021F00001000028E5D12068006820F40C50216817
:102200000860012084F8390000BF002084F83800FD
:1022100000BF00BFE8E72DE9F84304460F46154626
:102220001E46DDE9088900BF94F83800012802D174
:102230000220BDE8F883012084F8380000BF0220A6
:1022400084F83900206845614346324639462046C5
:10225000CDF80090FFF7CAF82068006840F40C50F1
:10226000216808602068006840F00100216808606B
:102270000020DEE770472DE9F04104460E46206855
:1022800000F124072068006840F00400216808601D
:10229000012E02D1206800F11C0700F0D7FF05468F
:1022A00014E000F0D3FF401BB0F57A7F0ED9E06B4D
:1022B00040F02000E063032084F8390000BF0020D4
:1022C00084F8380000BF0320BDE8F081386800F0D2
:1022D00020000028E5D12068006820F464502168BF
:1022E0000860012084F8390000BF002084F838001D
:1022F00000BF00BFE8E7000070B502460C4650681A
:10230000B0F5403F02D0506800B100BF00BF92F866
:102310003800012801D1022070BD012082F8380068
:1023200000BF022082F8390002F1180000EB04110E
:102330000E89486840EA0643214D48680A2802D0C1
:102340004868092804D1C86800F07F40034302E0D0
:10235000087B43EA0063A4B91068406AA8431843A5
:102360001668706208681668B06148680A2802D06A
:102370004868092819D1C86820F07F401668B06203
:1023800013E01068C069A84318431668F061086834
:102390001668306148680A2802D04868092804D1C4
:1023A000C86820F07F4016683062012082F839004A
:1023B00000BF002082F8380000BF00BFACE700007B
:1023C0000F0003FF10B504460CB9012010BD2448CE
:1023D000006800F4000020B32068006800F00100ED
:1023E00028B12046FFF7E0FED8B10120EEE72068D3
:1023F000406A00F02000202806D100212046FFF787
:102400003AFF70B10120E1E72068C06900F02000C8
:10241000202806D101212046FFF72DFF08B1012019
:10242000D4E70020216808603F20216888600020F0
:1024300021680861216888612168C8612168486253
:1024400021684863204600F0F1F80020E06384F83A
:10245000390000BF84F8380000BF00BFB6E70000B5
:102460003038024070B50446206845682068066828
:1024700005F00100E0B106F48070C8B12068006882
:1024800020F4807021680860E06B40F00100E06398
:10249000012021688860042084F8390000BF0020F2
:1024A00084F8380000BF606910B120466169884730
:1024B00005F02000E0B106F40050C8B120680068C3
:1024C00020F4005021680860202021688860E06BBB
:1024D00040F00200E063042084F8390000BF0020CF
:1024E00084F8380000BF606910B1204661698847F0
:1024F00005F00800E0B106F40060C8B1206800688B
:1025000020F4006021680860082021688860E06B82
:1025100040F00400E063042084F8390000BF00208C
:1025200084F8380000BF606910B1204661698847AF
:1025300005F0040070B106F4806058B120680068AE
:1025400020F48060216808600420216888602046AB
:1025500000F06BF805F00200D0B106F40070B8B1DD
:102560002068006820F4007021680860022021685B
:102570008860E06BE063012084F8390000BF002030
:1025800084F8380000BF206910B1204621698847CF
:1025900005F01000C0B106F48050A8B120680068B2
:1025A00020F4805021680860102021688860E06B6A
:1025B000E063012084F8390000BF002084F838006F
:1025C00000BF2046FFF756FE70BD10B504460CB99B
:1025D000012010BD94F8390028B9002084F8380093
:1025E000204600F037F8022084F83900206800689F
:1025F00020F4403061680843216808602068406B1F
:1026000020F00700A1680843216848632068006C37
:102610006FF30D00E1680843216808640020E0635F
:10262000012084F839000020D3E7704710B5044634
:1026300006492068884208D10548006820F4000057
:10264000034908605A2001F017FE10BD00B0024097
:102650003038024038B504460D492068884215D10B
:1026600000BF0C48006840F400000A4908600846B2
:10267000006800F40000009000BF00BF00220521A8
:102680005A2001F02BFE5A2001F018FE38BD000040
:1026900000B00240303802402DE9F84304460D46B0
:1026A00016461F46DDF8208000BF94F83800012848
:1026B00002D10220BDE8F883012084F8380000BF71
:1026C000022084F839003B46324629462046CDF8A0
:1026D0000080FEF78BFE2068006840F40C502168F3
:1026E00008602068006840F0010021680860002050
:1026F000E0E7014691F83500022803D080204865C4
:1027000001207047052081F835000868006820F036
:1027100001000A6810600020F3E770B504460CB9A8
:10272000012070BD94F83500022800D1F9E7206837
:10273000006820F00100216808600020216808601E
:1027400021684860216888602168C8602168086144
:102750002120216848612046FEF7CCFE054694F80A
:102760005C103F208840A8600020E0632064606423
:10277000A064E0642065606584F8350000BF84F8DB
:10278000340000BF00BFCCE70146486D7047000031
:10279000F8B50446002000908C4800684FF41651AC
:1027A000B0FBF1F7A56D2E6894F85C100820884006
:1027B000304098B12068006800F0040070B12068D3
:1027C000006820F004002168086094F85C1008207C
:1027D0008840A860606D40F00100606594F85C106E
:1027E00001208840304068B12068406900F08000D6
:1027F00040B194F85C1001208840A860606D40F002
:102800000200606594F85C1004208840304068B194
:102810002068006800F0020040B194F85C100420C9
:102820008840A860606D40F00400606594F85C101A
:1028300010208840304078B32068006800F008001D
:1028400050B394F85C1010208840A860206800689D
:1028500000F4802080B12068006800F4002028B9CE
:10286000206CC8B12046216C884715E0A06C98B157
:102870002046A16C88470FE02068006800F4807053
:1028800028B92068006820F0080021680860206CE2
:1028900010B12046216C884794F85C1020208840B5
:1028A0003040002865D02068006800F01000002843
:1028B0005FD094F85C1020208840A86094F8350020
:1028C000052828D12068006820F0160021680860DB
:1028D0002068406920F0800021684861206C08B9B8
:1028E000A06C28B12068006820F00800216808600A
:1028F00094F85C103F208840A86000BF002084F856
:10290000340000BF012084F83500206D10B120464E
:10291000216D8847F8BD2068006800F4802080B1F0
:102920002068006800F4002028B9606C10B12046CF
:10293000616C88471DE0E06BD8B12046E16B8847A9
:1029400017E02068006800F4807068B920680068AB
:1029500020F010002168086000BF002084F83400D7
:1029600000BF012084F83500E06B10B12046E16B18
:102970008847606D38B3606D00F00100F0B105204C
:1029800084F835002068006820F0010021680860A4
:1029900000BF0098401C0090B84200D905E02068B4
:1029A000006800F001000028F3D100BF00BF002044
:1029B00084F8340000BF012084F83500E06C10B1C9
:1029C0002046E16C884700BFA4E70000E80400202F
:1029D0002DE9F0410446002500F038FC074614B903
:1029E0000120BDE8F081606A00B100BF00BF002097
:1029F00084F8340000BF022084F8350020680068A5
:102A000020F00100216808600AE000F01FFCC01BF4
:102A1000052805D920206065032084F83500E0E70B
:102A20002068006800F001000028EED120680568E9
:102A300021480540D4E901010843E16808432169C0
:102A4000084361690843A1690843E1690843216AB1
:102A500008430543606A042803D1D4E90B01084305
:102A60000543206805602068456925F00705606A10
:102A70000543606A04280DD1A06A0543E06A48B1A5
:102A80002046FEF751FD28B140206065012084F802
:102A90003500A6E7206845612046FEF72BFD064677
:102AA00094F85C103F208840B060002060650120F1
:102AB00084F83500002094E73F8010F02DE9F047BE
:102AC00004460D4616461F464FF00008D4F85890AD
:102AD00000BF94F83400012802D10220BDE8F0873D
:102AE000012084F8340000BF94F8350001282BD170
:102AF000022084F83500002060653B4632462946B6
:102B00002046FEF766FD94F85C103F208840C9F827
:102B100008002068006840F01600216808602068FE
:102B2000406940F0800021684861206C28B120682D
:102B3000006840F00800216808602068006840F0E4
:102B400001002168086006E000BF002084F834001E
:102B500000BF4FF002084046C0E7000070B50446D1
:102B600000F074FB06462546681C10B10448007846
:102B7000054400BF00F06AFB801BA842FAD370BD79
:102B8000E40400200348006840F0010001490860A7
:102B900070470000203801402DE9F04104460E4600
:102BA0000127002500BF2448007D012802D1022012
:102BB000BDE8F08101202049087500BF4CF250307B
:102BC000FEF7EEFE07467FBB4FF0FF303060206817
:102BD00001280ED1207BFEF713FE4CF25030FEF799
:102BE000DFFE07461548006820F00400134908601E
:102BF0001AE0656812E0217B2846FEF7CBFD4CF217
:102C00005030FEF7CDFE07460C48006820F07A00F1
:102C10000A4908600FB1356005E06D1CD4E9011068
:102C20000844A842E7D800BF00BF00200249087549
:102C300000BF3846BCE70000F0570020103C0240BF
:102C40000348006840F000400149086000207047D8
:102C5000103C024010B50548006840F002000349EE
:102C600008604CF25030FEF79BFE10BD143C024051
:102C70000748006800F0010030B1064804490C39EB
:102C800008600548086001E0012070470020FCE76B
:102C9000143C02403B2A19087F6E5D4C2DE9F0413F
:102CA00006460F4614461D464FF0010800BF224855
:102CB000007D012802D10220BDE8F08101201E49DB
:102CC000087500BF4CF25030FEF76AFE8046B8F13E
:102CD000000F29D136B1012E09D0022E0CD0032EBF
:102CE00015D10EE0E1B23846FEF7AAFD10E0A1B220
:102CF0003846FEF7DDFD0BE021463846FEF7F4FDD1
:102D000006E022462B463846FEF7B4FD00E000BF41
:102D100000BF4CF25030FEF743FE80460748006883
:102D200020F001000549086000BF00200249087535
:102D300000BF4046C0E70000F0570020103C0240B2
:102D400000200949096801F0004159B10749064AC4
:102D50000C3A1160064911600349096801F000410D
:102D600001B1012070470000103C0240230167457B
:102D7000AB89EFCD00B587B0142102A8FDF7AEFBFB
:102D80003848006808B107B000BD01203549086027
:102D900000BF3548006840F001003349086008462C
:102DA000006800F00100019000BF00BF40F2FF602A
:102DB00002900220039000200490032005900C2034
:102DC000069002A9294800F01DF94FF63F00029035
:102DD0000220039000200490032005900C20069010
:102DE00002A9234800F00EF94FF62C700290022041
:102DF000039000200490032005900C20069002A967
:102E00001C4800F0FFF848F23310029002200390B3
:102E100000200490032005900C20069002A916487B
:102E200000F0F0F84FF6837002900220039000202B
:102E30000490032005900C20069002A90F4800F092
:102E4000E1F84CF2037002900220039000200490FD
:102E5000032005900C20069002A9094800F0D2F842
:102E600000BF90E7140400203838024000200240E0
:102E700000140240001C02400018024000100240F2
:102E8000000C0240F0B50C46002500220023002172
:102E90009CE0012606FA01F504EA0502AA427CD16B
:102EA0004C4E8F0856F827308E07370F0F26BE403E
:102EB0003340494EB04201D100262DE0474EB0428A
:102EC00001D1012628E0464EB04201D1022623E07E
:102ED000444EB04201D103261EE0434EB04201D120
:102EE000042619E0414EB04201D1052614E0404EBF
:102EF000B04201D106260FE03E4EB04201D1072676
:102F00000AE03D4EB04201D1082605E03B4EB042FA
:102F100001D1092600E00A268F073F0FBE409E42DE
:102F200022D18E07370F0F2606FA07F3294E8F0896
:102F300056F827609E43274F4FEA910C47F82C60C4
:102F40002F4E366896432E4F3E603E1D36689643A0
:102F50003F1D3E603E1D366896433F1D3E603E1D50
:102F6000366896433F1D3E6006684FEA410C0327D2
:102F700007FA0CF7BE430660CF0800F1200656F8AA
:102F800027604F074FEAD76C0F2707FA0CF7BE43AD
:102F90004FEAD10C00F1200700E016E047F82C6062
:102FA00086684FEA410C032707FA0CF7BE43866098
:102FB000466801278F40BE434660C6684FEA410C11
:102FC000032707FA0CF7BE43C660491C1029FFF41B
:102FD00060AFF0BD0838014000000240000402402C
:102FE00000080240000C02400010024000140240A1
:102FF00000180240001C0240002002400024024051
:10300000003C0140F8B502460B4600210025002493
:10301000002000BFE4E0012606FA01F51E6806EA7A
:103020000504AC4271D15E68022E02D05E68122E99
:1030300013D1CF0802F1200656F827004E07F70EED
:103040000F26BE40B0434F07FF0E1E69BE403043FF
:10305000CF0802F1200646F8270010684F0003262B
:10306000BE40B0431E7906F003064F00BE40304319
:1030700010605E68012E08D05E68022E05D05E6882
:10308000112E02D05E68122E13D190684F000326D5
:10309000BE40B0434F00DE68BE4030439060506891
:1030A00001268E40B0431E79C6F300168E40304391
:1030B0005060D0684F000326BE40B0434F009E686A
:1030C000BE403043D0605E6806F08056B6F1805F47
:1030D000A8D100BF444E366846F48046424F3E6059
:1030E0003E46366806F48046009600BF00BF3F4E5D
:1030F0008F0856F827008E07370F0F26BE40B043C3
:103100003B4EB24202D100262EE068E0394EB24278
:1031100001D1012628E0384EB24201D1022623E037
:10312000364EB24201D103261EE0354EB24201D1E5
:10313000042619E0334EB24201D1052614E0324E86
:10314000B24201D106260FE0304EB24201D107262D
:103150000AE02F4EB24201D1082605E02D4EB242C0
:1031600001D1092600E00A268F073F0FBE403043F9
:103170001E4E8F0846F82700274E3068A0435E6831
:1031800006F48036B6F5803F00D12043224E3060F1
:10319000361D3068A0435E6806F40036B6F5003F81
:1031A00000D120431C4E361D3060361D3068A043D0
:1031B0005E6806F48016B6F5801F00D12043164ED7
:1031C00008363060361D3068A0435E6806F400168D
:1031D000B6F5001F00D120430F4E0C363060491C5D
:1031E0001029FFF418AFF8BD4438024008380140F8
:1031F000000002400004024000080240000C0240AF
:10320000001002400014024000180240001C02405E
:103210000020024000240240003C014002461369A5
:103220000B400BB1012000E00020704742690A40CA
:103230008A4202D10A04826100E0816170470AB1CA
:10324000816101E00B048361704700000148006860
:1032500070470000DC040020024692F8410020285C
:103260002DD100BF92F84000012801D10220704703
:10327000012082F8400000BF242082F8410010683D
:10328000006820F00100136818601068006820F4DE
:10329000805013681860106800680843136818604D
:1032A0001068006840F0010013681860202082F860
:1032B000410000BF002082F8400000BFD7E7022095
:1032C000D5E710B502460B4692F8410020282AD1D6
:1032D00000BF92F84000012801D1022010BD01205A
:1032E00082F8400000BF242082F841001068006886
:1032F00020F00100146820601068016821F47061FA
:1033000041EA0321106801601068006840F0010084
:1033100014682060202082F8410000BF002082F85D
:10332000400000BFDAE70220D8E710B504460CB928
:10333000012010BD242084F841002068006820F09E
:10334000010021680860204600F080FB00206064D6
:1033500084F84100206384F8420000BF84F84000F4
:1033600000BF00BFE5E770B50446206885692068A6
:103370000668606B20B1324629462046636B984749
:1033800070BD014691F841007047000010B5044639
:103390000CB9012010BD94F8410028B9002084F830
:1033A0004000204600F0C2FB242084F84100206841
:1033B000006820F0010021680860606820F07060FB
:1033C000216808612068806820F4004021688860D6
:1033D000E068012805D1A06840F4004021688860B9
:1033E00004E0A06840F4044021688860E068022896
:1033F00002D1800221684860206840681349084370
:10340000216848602068C06820F400402168C860D6
:10341000D4E904010843A16940EA01202168C86099
:10342000D4E907010843216808602068006840F07B
:1034300001002168086000206064202084F84100B9
:103440000020206384F8420000BFA3E70080000250
:103450002DE9F8430446894616461F46DDF82080CC
:1034600094F84100202873D100BF94F8400001284F
:1034700002D10220BDE8F883012084F8400000BF9B
:10348000FFF7E4FE054619230122D10320460095EB
:1034900004F04AF908B10120ECE7222084F8410049
:1034A000102084F8420000206064666267856063D3
:1034B000608DFF280CD9FF2020853C48009094F8AF
:1034C00028204FF080734946204604F013F90BE0A2
:1034D000608D20853548009094F828204FF00073C7
:1034E0004946204604F006F93FE02A464146204678
:1034F00004F04AF908B10120BCE72068406A616A1B
:103500000870606A401C6062208D401E2085608DBE
:10351000401E6085608D40B3208D30BB4346002245
:1035200080212046009504F0FFF808B10120A1E7B2
:10353000608DFF280DD9FF2020850020009094F891
:1035400028204FF080734946204604F0D3F80CE061
:103550002AE0608D20850020009094F828204FF00C
:1035600000734946204604F0C5F8608D0028BCD1A0
:103570002A464146204604F057F908B1012079E770
:1035800020202168C86120684068094908402168F6
:103590004860202084F84100002084F8420000BFE9
:1035A00084F8400000BF65E7022063E70024008044
:1035B00000E800FE2DE9F8430446894616461F46FA
:1035C000DDF8208094F84100202871D100BF94F8E4
:1035D0004000012802D10220BDE8F883012084F8D0
:1035E000400000BFFFF732FE054619230122D10338
:1035F0002046009504F098F808B10120ECE721205E
:1036000084F84100102084F8420000206064666263
:1036100067856063608DFF280BD9FF2020853B48BC
:10362000009094F82820C3024946204604F062F82E
:103630000AE0608D20853548009094F82820030327
:103640004946204604F056F83FE02A4641462046C7
:1036500004F015F908B10120BEE7606A007821681E
:103660008862606A401C6062608D401E6085208DAB
:10367000401E2085608D40B3208D30BB4346002224
:1036800080212046009504F04FF808B10120A3E7FF
:10369000608DFF280DD9FF2020850020009094F830
:1036A00028204FF080734946204604F023F80CE0B0
:1036B0002AE0608D20850020009094F828204FF0AB
:1036C00000734946204604F015F8608D0028BCD1EF
:1036D0002A464146204604F0A7F808B101207BE7BE
:1036E00020202168C8612068406809490840216895
:1036F0004860202084F84100002084F8420000BF88
:1037000084F8400000BF67E7022065E700200080E2
:1037100000E800FE2DE9FC5F0446894692469B4680
:10372000DDE90C780E9E94F8410020287ED117B177
:10373000B8F1000F05D14FF4007060640120BDE8BE
:10374000FC9F00BF94F84000012801D10220F6E759
:10375000012084F8400000BFFFF778FD05461923DB
:103760000122D1032046009503F0DEFF08B10120BD
:10377000E5E7222084F84100402084F84200002040
:1037800060646762A4F82A8060635B4652464946DB
:103790002046CDE9006503F031FF30B100BF0020C5
:1037A00084F8400000BF0120C9E7608DFF280CD9D4
:1037B000FF2020853D48009094F828204FF080732A
:1037C0004946204603F096FF0BE0608D2085374880
:1037D000009094F828204FF000734946204603F0EB
:1037E00089FF00BF3346002204212046009503F0E4
:1037F0009BFF08B10120A2E72068406A616A087057
:10380000606A401C6062208D401E2085608D401ED5
:103810006085608D48B3208D38BB334600228021FF
:103820002046009503F080FF18B100E03CE0012045
:1038300085E7608DFF280CD9FF20208500200090AF
:1038400094F828204FF080734946204603F052FF39
:103850000BE0608D20850020009094F828204FF028
:1038600000734946204603F045FF608D0028B9D11A
:103870002A463146204603F0D7FF08B101205EE713
:1038800020202168C86120684068094908402168F3
:103890004860202084F84100002084F8420000BFE6
:1038A00084F8400000BF4AE7022048E70024008077
:1038B00000E800FE2DE9FC5F0446894692469B46DF
:1038C000DDE90C780E9E94F8410020287DD117B1D7
:1038D000B8F1000F05D14FF4007060640120BDE81D
:1038E000FC9F00BF94F84000012801D10220F6E7B8
:1038F000012084F8400000BFFFF7A8FC054619230B
:103900000122D1032046009503F00EFF08B10120EB
:10391000E5E7212084F84100402084F8420000209F
:1039200060646762A4F82A8060635B465246494639
:103930002046CDE9006503F09FFE30B100BF0020B6
:1039400084F8400000BF0120C9E7608DFF280CD932
:10395000FF2020850020009094F828204FF08073ED
:103960004946204603F0C6FE0BE0608D208500200E
:10397000009094F828204FF000734946204603F049
:10398000B9FE00BF2A463146204603F078FF08B151
:103990000120A4E7606A007821688862606A401CA0
:1039A0006062608D401E6085208D401E2085608D88
:1039B00040B3208D30BB3346002280212046009545
:1039C00003F0B2FE10B1012089E73AE0608DFF28D4
:1039D0000CD9FF2020850020009094F828204FF07B
:1039E00080734946204603F085FE0BE0608D2085FC
:1039F0000020009094F828204FF00073494620469C
:103A000003F078FE608D0028BCD12A46314620465E
:103A100003F00AFF08B1012061E720202168C86196
:103A2000206840680849084021684860202084F8E0
:103A30004100002084F8420000BF84F8400000BF2D
:103A40004DE702204BE7000000E800FE10B586B00D
:103A500004463149206888422AD13048006820F461
:103A600000102E49086040212D48FFF70BFA4FF453
:103A700000712B48FFF706FA142101A8FCF72EFD70
:103A80004FF41070019001200290002003900490E8
:103A900001A92348FFF7B6FA00224FF4107120481D
:103AA000FFF7CDFB002204211E48FFF7C8FB31E0E1
:103AB0001D49206888422DD11848006820F48000F4
:103AC0001649086009151648FFF7DCF94FF4006144
:103AD0001348FFF7D7F9212000F0CEFB142101A8ED
:103AE000FCF7FCFC4FF440600190012002900020A4
:103AF0000390049001A90A48FFF784FA00224FF4CA
:103B000040610748FFF79BFB002204210548FFF7AF
:103B100096FB00BF06B010BD005400404038024084
:103B200000040240000802400058004010B586B072
:103B30000446142101A8FCF7D1FC364920688842CC
:103B40002CD100BF3448006840F0020032490860C0
:103B50000846006800F00200009000BF00BF4FF46C
:103B60001070019012200290012003900320049015
:103B70000420059001A92948FFF744FA00BF264810
:103B80001030006840F400102349103108600846E6
:103B9000006800F40010009000BF38E02049206861
:103BA000884234D100BF1C48006840F002001A4926
:103BB00008600846006800F00200009000BF00BFE7
:103BC0004FF44060019012200290012003900320E6
:103BD00004900420059001A91048FFF713FA00BFD4
:103BE0000D481030006840F480000B491031086027
:103BF0000846006800F48000009000BF00BF00226B
:103C00000521212000F06AFB212000F057FB06B0BF
:103C100010BD000000540040303802400004024053
:103C200000580040034800680349097808440149E6
:103C300008607047DC040020E404002010B50A4846
:103C4000006840F40070084908600846006840F4C5
:103C500080700860032000F07FFB002000F006F871
:103C600000F0DCFA002010BD003C024070B588B0C6
:103C700004460025002600222146362000F02EFBB7
:103C8000362000F01BFB00BF1648006840F0100013
:103C9000144908600846006800F01000019000BF59
:103CA00000BF02A903A801F0AFFE01F0D5FE450058
:103CB0000D48B5FBF0F0461E0C480D49086040F277
:103CC000E7310B48C160466000210161816002F06C
:103CD00089FE20B9064802F0E9FE08B070BD012057
:103CE000FBE700004038024040420F000010004057
:103CF0006011002070B504460E46154600BF94F8CA
:103D0000A000012801D1022070BD012084F8A0008C
:103D100000BF022084F8A10005EB850101EBC5027C
:103D200004F1380101EB820034223146FCF79CFBA0
:103D30002A463146204603F075FE0120216848627C
:103D400084F8A10000BF002084F8A00000BF00BFDD
:103D5000DAE7704770B504462068856B2068466BCB
:103D600005F00400E0B106F00400C8B12068406B23
:103D700020F004002168486304202168C863D4F857
:103D8000A40040F00100C4F8A400042084F8A100BD
:103D900000BF002084F8A00000BF2046FFF7D9FF35
:103DA00005F00200E0B106F00200C8B12068406BE7
:103DB00020F002002168486302202168C863D4F81B
:103DC000A40040F00200C4F8A400042084F8A1007C
:103DD00000BF002084F8A00000BF2046FFF7B9FF15
:103DE00005F00100A8B106F0010090B12068406B19
:103DF00020F001002168486301202168C86384F82D
:103E0000A10000BF002084F8A00000BF204600F001
:103E1000A7F805F00800B0B106F0080098B12068D6
:103E2000406B20F008002168486308202168C863BF
:103E3000012084F8A10000BF002084F8A00000BF8A
:103E4000204600F085F970BD70B504460CB901201C
:103E500070BD94F8A10028B9002084F8A000204685
:103E600000F0BCF8022084F8A1002068806920F0EE
:103E7000704021688861D4E901010843E168084382
:103E8000216908432168896908432168886120689D
:103E900080683249084021688860A08A050420684B
:103EA0008068A16929430843216888602068C06848
:103EB0002A4908402168C860A08B05042068C068B2
:103EC000216A294308432168C860206800692349A2
:103ED000084021680861A08C050420680069A16A77
:103EE0002943084321680861206840691B4908404C
:103EF00021684861A08D050420684069216B294331
:103F000008432168486194F83500050294F83600AA
:103F100006042068C06A00F07F402168C86246EA53
:103F2000050094F8341008432168C96A08432168E1
:103F3000C8622068406B40F0060021684863206832
:103F4000806940F00100216888610020C4F8A40065
:103F5000012084F8A10000207AE7000000F800F0BA
:103F600070B50546194800681949098888421AD170
:103F700018480188284600F0C1F800BF16490868B3
:103F800000BF90F86610491C80F8661000BF0AF068
:103F9000D1FF00BF1048006804460DF009F800206A
:103FA0000EF01AF811E00A480188284600F0A6F839
:103FB00000200EF012F800BF0748046800BF206818
:103FC00081692046884700BF00BF70BD406801403E
:103FD0005A0400205C0400205808002010B586B068
:103FE0000446142101A8FCF779FA3F492068884269
:103FF00077D100BF3D48006840F080603B490860D1
:104000000846006800F08060009000BF00BF00BF5D
:1040100036481438006840F4807034491439086018
:104020000846006800F48070009000BF00BF00BF29
:104030000846006840F4007008600846006800F414
:104040000070009000BF00BF00BF0846006840F449
:10405000806008600846006800F48060009000BF3F
:1040600000BF4FF4E0400190022002900020039036
:10407000012004900E20059001A91D48FEF7C2FF03
:104080004FF4004001900220029000200390049021
:104090000E20059001A91648FEF7B4FF4FF6FF70F9
:1040A0000190022002900020039004900E200590C1
:1040B00001A91048FEF7A6FFFF2001900220029000
:1040C0000020039004900E20059001A90A48FEF7F5
:1040D00099FF00220521582000F000F9582000F037
:1040E000EDF806B010BD0000006801404438024001
:1040F000002002400024024000280240024600BF87
:1041000092F8A000012801D102207047012082F816
:10411000A00000BF022082F8A1001068406B20F0D0
:10412000010013685863094801601068406B40F053
:10413000010013685863012082F8A10000BF00202D
:1041400082F8A00000BF00BFDFE700004068014028
:1041500070470000F0B503460D4600BF93F8A0007D
:10416000012801D10220F0BD012083F8A00000BF8A
:10417000022083F8A10002EB820000EBC20703F1EA
:10418000380000EB8700016909B904240EE0012919
:1041900001D103240AE0042905D0022903D0032910
:1041A00001D0072901D1022400E0012405FB04F01D
:1041B000060418688430802707FB0200C06A154F88
:1041C00038401F6884374FF0800C0CFB0277F86290
:1041D0001148006840F001000F4F386018688430C3
:1041E000802707FB0200C06A30431F6884370CFB3E
:1041F0000277F8620848006840F00100064F386016
:10420000012083F8A10000BF002083F8A00000BFB8
:1042100000BFA8E7FFFF00E02468014008B500BF29
:104220001448006840F08050124908600846006851
:1042300000F08050009000BF00BF00BF081D006864
:1042400040F48040091D08600846006800F4804082
:10425000009000BF00BF00220F21901E00F03EF82A
:1042600000220521012000F039F8012000F026F895
:1042700008BD00004038024010B50146084600283D
:1042800017DB00F01F0301229A400B4B440943F84F
:10429000242000BF00BF00BFBFF34F8F00BF00BF8F
:1042A00000BF00BF00BF00BFBFF36F8F00BF00BFE4
:1042B00000BF00BF10BD000080E100E001460846DD
:1042C000002809DB00F01F0301229A4043099B00EC
:1042D00003F1E023C3F8002100BF70472DE9F05F30
:1042E00080460D461646002712F0ACFF07463946B9
:1042F0002A46334601F00700C0F1070ABAF1040F5D
:1043000002D94FF0040A01E0C0F1070AD14600F1DA
:10431000040ABAF1070F02D24FF0000A01E0A0F13F
:10432000030AD4464FF0010A0AFA09FAAAF1010A6F
:104330000AEA020A0AFA0CFA4FF0010B0BFA0CFB1C
:10434000ABF1010B0BEA030B4AEA0B042146404692
:1043500012F080FFBDE8F09F00BF00F00702064B9F
:1043600019684FF6FF031940044B0B4343EA02213F
:10437000014B196000BF70470CED00E00000FA052A
:1043800000BF00BF00BF00BF00BFBFF34F8F00BF23
:1043900000BF00BF0948006800F4E0600849084316
:1043A000001D0649086000BF00BF00BFBFF34F8F6C
:1043B00000BF00BF00BF00BF00BFFDE70CED00E085
:1043C0000000FA0501460A680120C1F8FC0300203C
:1043D00081F8F403906940F000609061506D024BE9
:1043E00018435065002070470300001070B5044664
:1043F0000D4615B1012D2CD116E0206A38B105F01B
:1044000011FC1548006820F0060013490860206878
:10441000D0F8000E20F001002168C1F8000ED4F899
:10442000000407F052F814E02068D0F8000E40F0C5
:1044300001002168C1F8000ED4F8000407F0D5F897
:10444000206A28B10448006840F00600024908606C
:1044500000BF00BF70BD000010ED00E00246106814
:10446000416200207047F0B5034615461868446A5B
:1044700021B944EA05401E68B06219E01868806AF4
:1044800004EB1044002208E0186800F5827050F830
:10449000220004EB1044501CC2B2481E9042F3D8D4
:1044A00044EA0547186800F582704E1E40F82670F1
:1044B0000020F0BD10B50446D4F8000406F036FF25
:1044C00010BD70B504460D46C5EBC50304F13C01B3
:1044D00001EB8301CA682946D4F8000406F06AFE9D
:1044E00070BD70B504460D46C5EBC50304F5FE71FD
:1044F00001EB8301CA682946D4F8000406F0CDFE1A
:1045000070BD10B50446D4F8000406F012FF10BDCB
:1045100070B504460E4606F0800080280AD106F0E9
:104520000F00C0EBC00104F13C0000EB810501204D
:10453000687009E006F00F00C0EBC00104F5FE70E2
:1045400000EB81050020687006F00F00287000BFA6
:1045500094F8BC03012801D1022070BD012084F829
:10456000BC0300BF2946206807F0F6FB00BF00200F
:1045700084F8BC0300BF00BFEFE770B504460E46E9
:1045800006F00F006168884201D9012070BD06F075
:10459000800080280AD106F00F00C0EBC00104F1B2
:1045A0003C0000EB81050120687009E006F00F0077
:1045B000C0EBC00104F5FE7000EB810500206870BF
:1045C0000020A87006F00F00287000BF94F8BC030C
:1045D000012801D10220D9E7012084F8BC0300BFE3
:1045E0002946206807F05EFE00BF002084F8BC0367
:1045F00000BF00BFCAE7024601F00F00C0EBC003D6
:1046000002F5FE7000EB8300806970472DE9F047EA
:1046100005460E4690461F464FF0000906F0800002
:1046200080280AD106F00F00C0EBC00105F13C0064
:1046300000EB81040120607009E006F00F00C0EB80
:10464000C00105F5FE7000EB81040020607006F0EB
:104650000F002070C4F80880E770607808B12078F7
:10466000E080022F01D10020207100BF95F8BC032B
:10467000012802D10220BDE8F087012085F8BC03A3
:1046800000BF2146286807F079FA00BF002085F8AE
:10469000BC0300BF4846EEE72DE9F04104460E4654
:1046A0001746984606F00F00C0EBC00104F5FE70F7
:1046B00000EB8105EF60C5F814800020A8616870E8
:1046C00006F00F0028702069012800D12F6106F044
:1046D0000F0028B9227C2946206807F0CBFC04E0B3
:1046E000227C2946206807F071FE0020BDE8F08199
:1046F00070B504460D4605F00F006168884201D987
:10470000012070BD05F0800080280AD105F00F005F
:10471000C0EBC00104F13C0000EB81060120707089
:1047200007E0C5EBC50104F5FE7000EB8106002033
:1047300070700120B07005F00F00307000BF94F869
:10474000BC03012801D10220DBE7012084F8BC036F
:1047500000BF3146206807F0ECFD05F00F0028B9D6
:10476000217C04F57172206807F064FD00BF002011
:1047700084F8BC0300BF00BFC3E72DE9F041044645
:104780000E461746984606F00F00C0EBC00104F134
:104790003C0000EB8105EF60C5F814800020A861A3
:1047A0000120687006F00F0028702069012800D1F0
:1047B0002F6106F00F0028B9227C2946206807F0F7
:1047C00059FC04E0227C2946206807F0FFFD002008
:1047D000BDE8F0812DE9FE4F044620680290029D5D
:1047E0000026206807F0B3FF00287DD1206807F07D
:1047F000EDFF08B9BDE8FE8F206807F0E7FF00F085
:104800000200022805D12068406900F002002168FA
:104810004861206807F0DAFF00F40020B0F5002FAF
:1048200058D10026206807F0A1FF82464FE00AF029
:104830000100002848D0F1B2206807F0BAFF804696
:1048400008F0010048B1012105F5306000EB461089
:1048500081603146204603F065FF08F00800082813
:1048600009D13146204603F017FF082105F53060D5
:1048700000EB4610816008F01000102805D11021CF
:1048800005F5306000EB4610816008F0200020281C
:104890000ED12069012805D104F57172012120682B
:1048A00007F0C8FC202105F5306000EB4610816060
:1048B00008F40050B0F5005F06D14FF4005105F543
:1048C000306000EB46108160761C4FEA5A0ABAF15C
:1048D000000FACD1206807F079FF00F48020B0F51C
:1048E000802F7CD1206800E037E207F035FF824658
:1048F000002686E00AF0010000287FD0F1B220688F
:1049000007F03EFF804608F00100E8B306F00F0113
:1049100001208840019040F634004159019821EA75
:10492000000040F634014851012105F5106000EB0C
:10493000461081602069012815D1C6EBC60104F13B
:104940003C0000EB8100C6EBC602C16804F13C00EC
:1049500000EB820080680144C6EBC60204F13C0013
:1049600000EB8200C160F1B22046FFF7AAFD20698A
:10497000012810D146B9C6EBC60104F13C0000EB9A
:104980008100406900B900E005E004F57172012181
:10499000206807F04FFC08F00800082805D108211E
:1049A00005F5106000EB4610816008F0100010283B
:1049B00005D1102105F5106000EB4610816008F06C
:1049C0004000402805D1402105F5106000EB46105D
:1049D000816008F00200022808D1022101E014E001
:1049E0000CE005F5106000EB4610816008F08000D7
:1049F000802803D13146204603F054FF761C4FEA4D
:104A00005A0ABAF1000F7FF475AF206807F0DEFE96
:104A100000F00040B0F1004F1CD140F604004059B6
:104A200020F0010140F60400415194F8F4030128FC
:104A300007D1002084F8F40300212046FFF7D6FCBC
:104A400002E0204600F0BEFA2068406900F0004015
:104A500021684861206807F0B9FE00F40060B0F5F5
:104A6000006F0ED140F60800405900F0010010B16F
:104A7000204600F0F3FA2068406900F400602168E5
:104A80004861206807F0A2FE00F00060B0F1006FFE
:104A900019D12068406900F000602168486194F8ED
:104AA000F40368B9012084F8F4032068406DC0F372
:104AB0008300C4F8F80301212046FFF797FC02E0C9
:104AC000204600F0CBFA206807F080FE00F480500A
:104AD000B0F5805F72D140F60400405920F001012A
:104AE00040F6040041511021206807F005FE002720
:104AF00026E04FF67F3105F5106000EB471081602E
:104B000005F5106000EB4710006820F4001105F572
:104B1000106000EB471001604FF67F3105F5306003
:104B200000EB4710816005F5306000EB471000682E
:104B300020F4001105F5306000EB471001607F1C88
:104B40006068B842D5D840F61C00405940F00111C9
:104B500040F61C004151206B70B1D5F8840840F03C
:104B60000B01C5F8841840F64400405940F00B0191
:104B700040F6440041510FE040F61400405942F223
:104B80002B01084340F614014851081F405940F0DA
:104B90000B014FF401604151D5F8000820F4FE608C
:104BA000C5F80008217C04F57172206807F042FB0B
:104BB0002068406900F4805021684861206807F04F
:104BC00005FE00F40050B0F5005F1CD1206807F02E
:104BD0003DF8206807F0A8FD10B90021E16001E070
:104BE0000321E16000F032FF0090227B20680099F1
:104BF00007F03CFE204600F0CDF92068406900F443
:104C0000005021684861206807F0E0FD00F01000C6
:104C1000102846D12068806920F010002168886142
:104C20000298D0F8209009F00F00C0EBC00104F505
:104C3000FE7000EB810BC9F3434002281AD147F6FE
:104C4000F07009EA000030B3C9F30A12DBF80C1067
:104C5000029807F0C0FDC9F30A11DBF80C00084404
:104C6000CBF80C00C9F30A11DBF818000844CBF8A4
:104C7000180010E0C9F3434006280CD1082204F5BF
:104C80007171029807F0A7FDC9F30A11DBF818004B
:104C90000844CBF818002068806940F010002168B3
:104CA0008861206807F092FD00F00800082808D10C
:104CB000204600F08EF92068406900F00800216865
:104CC0004861206807F082FD00F48010B0F5801F75
:104CD00009D1F1B2204600F042F82068406900F4A2
:104CE000801021684861206807F070FD00F4001012
:104CF000B0F5001F09D1F1B2204600F039F8206864
:104D0000406900F4001021684861206807F05EFDEA
:104D100000F08040B0F1804F08D12046FFF7CAFB79
:104D20002068406900F0804021684861206807F0F1
:104D30004DFD00F0040004280FD12068D0F8049045
:104D400009F00400042802D12046FFF7DAFB2068AE
:104D5000406840EA09002168486000BF4AE570B534
:104D600004460D462946D4F8000406F04BFB70BDFE
:104D700070B504460D462946D4F8000406F045FBFC
:104D800070BD30B58BB0044614B901200BB030BDF6
:104D900094F8BD0328B9002084F8BC03204600F035
:104DA000A3F8032084F8BD03206807F05BF92822EC
:104DB00004F110016846FBF757FB94E80F0006F07A
:104DC00069FF20B1022084F8BD030120DEE7002145
:104DD000206807F011FD002531E00121C5EBC50277
:104DE00004F13C0000EB82004170C5EBC50104F109
:104DF0003C0000F82150C5EBC50100EB8100C580E7
:104E00000021C5EBC50204F13C0000EB8200C1703B
:104E1000C5EBC50204F13C0000EB82008160C5EBEC
:104E2000C50204F13C0000EB8200C160C5EBC50285
:104E300004F13C0000EB82004161681CC5B260686F
:104E4000A842CAD800252AE00021C5EBC50204F516
:104E5000FE7000EB82004170C5EBC50104F5FE70E9
:104E600000F821500021C5EBC50200EB8200C170A3
:104E7000C5EBC50204F5FE7000EB82008160C5EB56
:104E8000C50204F5FE7000EB8200C160C5EBC502EF
:104E900004F5FE7000EB82004161681CC5B26068D9
:104EA000A842D1D8282204F110016846FBF7DCFAA9
:104EB00094E80F0006F0D2FF20B1022084F8BD0371
:104EC000012063E7002084F83800012084F8BD0346
:104ED000606A012802D12046FFF774FA206806F0C4
:104EE000ADFF002052E7000010B588B00446142141
:104EF00003A8FBF7F3FA2068B0F1A04F44D100BF3C
:104F00002248006840F00100204908600846006817
:104F100000F00100029000BF00BF4FF4C0500390AA
:104F20000220049000200590032006900A2007909C
:104F300003A91748FEF766F800BF1448001D006873
:104F400040F080001149091D08600846006800F023
:104F50008000029000BF00BF0C481430006840F48D
:104F600080400A49143108600846006800F4804017
:104F7000019000BF00BF00BF002205214320FFF7C2
:104F8000ADF94320FFF79AF908B010BD3038024060
:104F90000000024070B504460125E06808B900250C
:104FA00006E0E068022801D1012501E0FCF728FBBA
:104FB0002946D4F8000406F0A4FAD4F8000406F058
:104FC00057FA70BD10B50446D4F8000406F07DFA17
:104FD00010BD10B50446D4F8000406F081FA10BDE7
:104FE00070B504460D4600BF94F8BC03012801D1FA
:104FF000022070BD012084F8BC0300BF84F8385043
:105000002946206807F013FC00BF002084F8BC0389
:1050100000BF00BFEDE710B5044604F57171D4F888
:10502000000406F085FA10BD10B5044600BF94F8E0
:10503000BC03012801D1022010BD012084F8BC036B
:1050400000BF206806F0EAFE206807F037FB00BFCB
:10505000002084F8BC0300BF00BFEDE710B5044694
:10506000D4F8000406F0C1FA2068D0F8000E40F031
:1050700001002168C1F8000E206A28B103480068C9
:1050800040F006000149086010BD000010ED00E08E
:1050900038B5002400BF2048006840F080501E4909
:1050A00008600846006800F08050009000BF00BF14
:1050B0001A48006840F4803018490860FEF7C6F8C6
:1050C000044607E0FEF7C2F8001BB0F57A7F01D96D
:1050D000032038BD1148406800F48030B0F5803FAF
:1050E000F0D10E48006840F400300C490860FEF72B
:1050F000ADF8044607E0FEF7A9F8001BB0F57A7F8B
:1051000001D90320E5E70548406800F40030B0F518
:10511000003FF0D10020DCE7403802400070004042
:105120000348006840F4807001490860704700003F
:10513000007000400E4A126822F004020C4B1A6004
:1051400000BF00BF00BFBFF34F8F00BF00BF00BF55
:1051500000BF00BF00BFBFF36F8F00BF00BF00BF25
:10516000012901D130BF02E040BF20BF20BF7047FE
:1051700010ED00E07047000010B50648006800F42C
:10518000803028B1FFF7F6FF4FF480300149086006
:1051900010BD0000143C01402DE9F84304460026F0
:1051A00000250027A846A946207800F0010088B114
:1051B00000BFFE48006820F40000FC490860084673
:1051C0000068616B0843F949086000BF606B08B96B
:1051D0004FF00108206800F40020B0F5002F13D133
:1051E000F2488430006820F44010E16B0843EF4936
:1051F00084310860E06BB0F5801F01D14FF00108E9
:10520000E06B08B94FF00109206800F48010B0F598
:10521000801F13D1E5488430006820F44000216CE1
:105220000843E24984310860206CB0F5800F01D159
:105230004FF00108206C08B94FF00109206800F018
:105240008070B0F1807F01D14FF00108207800F02C
:105250002000202870D100BFD4483830006840F0CA
:105260008050D249383108600846006800F080500C
:10527000009000BF00BFCE48006840F48070CC4969
:105280000860FDF7E3FF064607E0FDF7DFFF801B40
:10529000642802D90320BDE8F883C548006800F4FB
:1052A00080700028F1D0C1486830006800F4407573
:1052B00085B3208E00F44070A8422BD0BB486830E4
:1052C000006820F44075B9486830006840F48030C8
:1052D000B649683108600846006820F480300860EC
:1052E00008460560006800F0010098B1FDF7AEFFC8
:1052F000064608E0FDF7AAFF801B41F2883188428C
:1053000001D90320C7E7A94868300068C0F340000E
:105310000028EFD000BF208E00F44070B0F5407F31
:105320000BD1A248006820F4F810A24A216B11406A
:1053300008439E49086006E010E09C48006820F49D
:10534000F8109A490860994868300068218EC1F3C6
:105350000B01084395496831086000BF207800F0D0
:105360001000102810D100BF90488430006820F051
:1053700080708E498431086008460068A16B08433C
:105380008A498431086000BF208800F48040B0F56D
:10539000804F09D185488830006820F44030616E24
:1053A0000843824988310860208800F40040B0F545
:1053B000004F09D17D488830006820F44020A16E5C
:1053C00008437A4988310860206800F48030B0F5DD
:1053D000803F09D175488830006820F44010E16EA4
:1053E0000843724988310860206800F40030B0F545
:1053F000003F09D16D488830006820F44000216FDB
:1054000008436A4988310860207800F0400040284D
:1054100009D166488830006820F00300616C0843B9
:10542000624988310860207800F08000802809D126
:105430005E488830006820F00C00A16C08435B498E
:1054400088310860208800F48070B0F5807F09D131
:1054500056488830006820F03000E16C084353491A
:1054600088310860208800F40070B0F5007F09D111
:105470004E488830006820F0C000216D08434B4939
:1054800088310860208800F48060B0F5806F09D111
:1054900046488830006820F44070616D08434349F5
:1054A00088310860208800F40060B0F5006F09D1F1
:1054B0003E488830006820F44060A16D08433B49B5
:1054C00088310860208800F48050B0F5805F09D1F1
:1054D00036488830006820F44050E16D0843334975
:1054E00088310860208800F40050B0F5005F09D1D1
:1054F0002E488830006820F44040216E08432B4934
:1055000088310860206800F48000B0F5800F09D170
:1055100026488830006820F08060A16F0843234946
:1055200088310860206800F40010B0F5001F0FD12A
:105530001E488830006820F00060E16F08431B4976
:1055400088310860E06FB0F1006F01D14FF00109C0
:10555000207800F00800082801D14FF001092068E8
:1055600000F48020B0F5802F09D110488830006801
:1055700020F04070616F08430C4988310860206852
:1055800000F40000B0F5000F0AD108488830006828
:1055900020F08050D4F88010084304498831086016
:1055A000B8F1010F0BD0206806E000000838024077
:1055B00000700040FFFCFF0FB0F1007F7DD1AD48CF
:1055C000006820F08060AB490860FDF73FFE0646AA
:1055D00006E0FDF73BFE801B642801D903205AE654
:1055E000A4480068C0F3C0600028F2D1207800F021
:1055F0000100B8B1606BA8B99E4884300068C0F360
:1056000001459C4884300068C0F3036760688001EE
:1056100040EA054040EA0761207A41EA0070954976
:1056200084310860206800F40020B0F5002F03D119
:10563000E06BB0F5801F09D0206800F48010B0F551
:10564000801F24D1206CB0F5800F20D18948843090
:105650000068C0F30145874884300068C0F30277D2
:105660006068800140EA0541207B41EA006040EA31
:1056700007708049843108607E488C30006820F0D3
:105680001F00616A491E08437A498C31086020680E
:1056900000F08070B0F1807F17D1764884300068C8
:1056A000C0F30365734884300068C0F30277606814
:1056B0008101208A41EA004000E031E040EA0560D3
:1056C00040EA07706B4984310860206800F0007080
:1056D000B0F1007F0DD160688101208A41EA00416C
:1056E000207B41EA0061207A41EA007061498431FF
:1056F00008606048006840F080605E490860FDF71F
:10570000A5FD064606E0FDF7A1FD801B642801D932
:105710000320C0E557480068C0F3C0600028F2D0FD
:10572000B9F1010F7ED15348006820F080505149F3
:105730000860FDF78BFD064606E0FDF787FD801B40
:10574000642801D90320A6E54A480068C0F34070E8
:105750000028F2D1206800F40020B0F5002F01D11C
:10576000E06B38B1206800F48010B0F5801F22D1C2
:10577000206C00BB3F4888300068C0F301453D48BD
:1057800088300068C0F302776069800140EA054113
:10579000207E41EA006040EA07703649883108609F
:1057A000081D006820F4F851A06A401E41EA00205C
:1057B00030498C310860206800F40010B0F5001FFB
:1057C00019D1E06FB0F1006F15D12A488830006818
:1057D000C0F30365274888300068C0F3027760692A
:1057E0008101208C41EA004040EA056040EA0770F0
:1057F000204988310860207800F00800082820D16E
:105800001C4888300068C0F303651A488830006877
